:100000000C9462000C94710B0C948A000C948A007E
:100010000C948A000C948A000C948A000C948A0038
:100020000C948A000C948A000C948A000C948A0028
:100030000C948A000C94F40A0C948A000C948A00A4
:100040000C948B090C948A000C9459090C94330974
:100050000C948A000C948A000C948A000C948A00F8
:100060000C94D5090C948A0000000000240027009D
:100070002A0000000000250028002B0000000000DE
:1000800023002600290004040404040404040202DA
:100090000202020203030303030301020408102007
:1000A0004080010204081020010204081020000012
:1000B0000008000201000003040700000000000027
:1000C0000000E00B11241FBECFEFD8E0DEBFCDBF94
:1000D00023E0AAE0B2E001C01D92AA39B207E1F71D
:1000E00012E0A0E0B1E0ECECF6E202C005900D9267
:1000F000AA30B107D9F710E0C2E6D0E004C02197DA
:10010000FE010E945811C136D107C9F70E94280C80
:100110000C9464130C9400000895DB0114964D9127
:100120005C9115976D917C91DC01ED91FC910280C1
:10013000F381E02D0994AF92BF92CF92DF92EF92BC
:10014000FF920F931F93CF93DF936C017B018B0181
:10015000040F151FEB015E01AE18BF08C017D107D1
:1001600059F06991D601ED91FC910190F081E02D5B
:10017000C6010995892B79F7C501DF91CF911F91B0
:100180000F91FF90EF90DF90CF90BF90AF900895C8
:1001900008950895FC01538D448D252F30E0842F60
:1001A00090E0821B930B541710F0CF96089501979F
:1001B0000895FC01918D828D981761F0A28DAE0F8C
:1001C000BF2FB11D5D968C91928D9F5F9F73928F13
:1001D00090E008958FEF9FEF0895FC01918D828D3F
:1001E000981731F0828DE80FF11D858D90E008950C
:1001F0008FEF9FEF0895FC01918D228D892F90E064
:10020000805C9F4F821B91098F739927089581EE1F
:1002100092E00E94FB0021E0892B09F420E0822F6C
:10022000089580E090E0892B29F00E940701811158
:100230000C9400000895FC01A48DA80FB92FB11DE6
:10024000A35ABF4F2C91848D90E001968F7399270C
:10025000848FA689B7892C93A089B1898C918370EA
:1002600080648C93938D848D981306C00288F389E3
:10027000E02D80818F7D80830895EF92FF920F9310
:100280001F93CF93DF93EC0181E0888F9B8D8C8D42
:1002900098131AC0E889F989808185FF15C09FB736
:1002A000F894EE89FF896083E889F98980818370F9
:1002B000806480839FBF81E090E0DF91CF911F91A8
:1002C0000F91FF90EF900895F62E0B8D10E00F5FC9
:1002D0001F4F0F731127E02E8C8D8E110CC00FB69F
:1002E00007FCFACFE889F989808185FFF5CFCE0137
:1002F0000E941B01F1CFEB8DEC0FFD2FF11DE35A96
:10030000FF4FF0829FB7F8940B8FEA89FB898081B9
:100310008062CFCFCF93DF93EC01888D8823B9F033
:10032000AA89BB89E889F9898C9185FD03C0808100
:1003300086FD0DC00FB607FCF7CF8C9185FFF2CF7D
:10034000808185FFEDCFCE010E941B01E9CFDF91B7
:10035000CF910895833081F028F4813099F0823074
:10036000A9F008958730A9F08830C9F08430B1F43D
:10037000809180008F7D03C0809180008F77809373
:100380008000089584B58F7784BD089584B58F7DEE
:10039000FBCF8091B0008F778093B000089580915B
:1003A000B0008F7DF9CFCF93DF93282F30E0F90194
:1003B000E255FF4F8491F901E656FF4FD491F901C0
:1003C000EA57FF4FC491CC23A1F081110E94AA01EA
:1003D000EC2FF0E0EE0FFF1FE458FF4FA591B49112
:1003E000EC91ED2381E090E009F480E0DF91CF9182
:1003F000089580E090E0FACF1F93CF93DF93282FEA
:1004000030E0F901E255FF4F8491F901E656FF4FC4
:10041000D491F901EA57FF4FC491CC23A9F0162FCC
:1004200081110E94AA01EC2FF0E0EE0FFF1FEE58A1
:10043000FF4FA591B4918FB7F894EC91111108C0BA
:10044000D095DE23DC938FBFDF91CF911F9108956C
:10045000DE2BF8CFCF93DF9390E0FC01E656FF4F01
:1004600024918A579F4FFC0184918823D1F090E01A
:10047000880F991FFC01E859FF4FA591B491FC0129
:10048000EE58FF4FC591D49161110EC09FB7F894FB
:100490008C91E22FE0958E238C932881E223E883D0
:1004A0009FBFDF91CF9108958FB7F894EC91E22B25
:1004B000EC938FBFF6CF3FB7F8948091CB02909129
:1004C000CC02A091CD02B091CE0226B5A89B05C06A
:1004D0002F3F19F00196A11DB11D3FBFBA2FA92FC3
:1004E000982F8827BC01CD01620F711D811D911DC0
:1004F00042E0660F771F881F991F4A95D1F708952C
:100500008F929F92AF92BF92CF92DF92EF92FF9223
:100510004B015C010E945B026B017C010E945B024B
:100520006C197D098E099F09683E7340810591050C
:10053000A8F321E0821A9108A108B10888EEC80E3C
:1005400083E0D81EE11CF11C81149104A104B104C4
:1005500029F7FF90EF90DF90CF90BF90AF909F90E2
:100560008F9008952FB7F8946091C7027091C802D8
:100570008091C9029091CA022FBF08950F931F93D3
:100580000E94B2026093E9027093EA028093EB0248
:100590009093EC0281EE92E00E94D90097FF1DC07B
:1005A0000E94B2020091E9021091EA022091EB024E
:1005B0003091EC02601B710B820B930B0091E502F2
:1005C0001091E6022091E7023091E802601771076E
:1005D00082079307F8F28FEF9FEF1F910F91089515
:1005E00020915502260F3327331F21323105ECF4B9
:1005F00020919E02FC0190E080E0243069F082E0CE
:100600000895A09155022191AC014B5C5D4FA40F60
:10061000B52FB11D2C930196861798F38091550242
:10062000680F6093550280E0089581E0089510926C
:100630009E0281E080939D021092780261E082E147
:100640000E94FC0161E083E10E94FC01E9EBF0E023
:1006500080818E7F808380818D7F808388E48093FA
:10066000B80085E48093BC000895CF93DF9391E0B8
:10067000909334028823B9F0C091B800D091BA00A9
:100680008091BC008A7B8093BC0060E082E10E9484
:10069000FC0160E083E10E94FC010E941703D093FB
:1006A000BA00C093B800DF91CF9108950895E0910A
:1006B000D6028091D502E81730F4F0E0EC5EFD4FF1
:1006C000808190E008958FEF9FEF08959091D6027A
:1006D0008091D5022FEF3FEF981748F4E92FF0E013
:1006E000EC5EFD4F208130E09F5F9093D602C90100
:1006F00008958091D5029091D602891B990B089597
:10070000CF92DF92EF92FF920F931F93CF93DF93DD
:100710007C01CB018A012091A402222389F0EB0104
:100720006B01C40ED51ECC15DD0569F06991D701AA
:10073000ED91FC910190F081E02DC7010995F3CF77
:10074000642F0E94F002C801DF91CF911F910F9199
:10075000FF90EF90DF90CF900895CF93DF931F929B
:10076000CDB7DEB769832091A4022223F9F020914E
:10077000D302203258F021E030E0FC0133832283A1
:1007800090E080E00F90DF91CF9108958091D402A6
:10079000E82FF0E0EB55FD4F998190838F5F8093B8
:1007A000D4028093D30281E090E0ECCF61E0CE01EF
:1007B00001960E94F002F7CFCF92DF92EF92FF9264
:1007C0000F931F93CF93DF93FC01C48121E020930B
:1007D000A402C093C5021092D4021092D302838562
:1007E000682B8EE793E00E94AD03D091D302D13203
:1007F00008F092C00E945B026B017C0180919E0216
:10080000811165C082E080939E0281E080939D0209
:100810008FEF80939C0210929B02D0939A02A5EADC
:10082000B2E0EAE7F2E080E0D81385C010927902E6
:1008300080917902CC0FC82BC09379028091780205
:10084000813009F07CC0109278020E945B026B013B
:100850007C01809179028093BB008091A0029091ED
:10086000A102A091A202B091A302892B8A2B8B2B0B
:1008700099F00E945B020091A0021091A1022091C8
:10088000A2023091A3026C197D098E099F090617F7
:10089000170728073907E0F18091BC0083FDD9CF05
:1008A00085EC8093BC000E945B026B017C0180910F
:1008B0009E02823009F445C080919C028F3F61F115
:1008C00080919C02803241F180919C0225C08091F0
:1008D000A0029091A102A091A202B091A302892B43
:1008E0008A2B8B2B09F48ACF0E945B020091A00215
:1008F0001091A1022091A2023091A3026C197D09EE
:100900008E099F09061717072807390708F076CFC1
:1009100080919F020E9435031092D4021092D3025C
:100920001092A402DF91CF911F910F91FF90EF9051
:10093000DF90CF9008959D9191938F5F75CF85EE55
:10094000B0CF8091A0029091A102A091A202B0919B
:10095000A302892B8A2B8B2B09F4A9CF0E945B025F
:100960000091A0021091A1022091A2023091A30255
:100970006C197D098E099F09061717072807390783
:1009800008F095CFC5CF90E080E0089580910801F0
:10099000909109018C349105D9F0809108019091D2
:1009A000090183349105A1F08CE490E09093090152
:1009B000809308012091DB023091DC0280910001DC
:1009C00090910101232B29F49093DC028093DB02A8
:1009D00008952091DB023091DC02821B930BF4CF4F
:1009E000809108019091090189349105D9F0809195
:1009F0000801909109018F349105A1F089E490E0FC
:100A000090930901809308012091DB023091DC0270
:100A10008091000190910101232B29F49093DC0235
:100A20008093DB0208952091DB023091DC02821B6F
:100A3000930BF4CFFB0101900020E9F73197AF0150
:100A4000461B570BDC01ED91FC910280F381E02DF8
:100A500009948F929F92AF92BF92EF92FF920F9361
:100A60001F93CF93DF93CDB7DEB7A1970FB6F8945E
:100A7000DEBF0FBECDBF7C01FA01CB0119A222302F
:100A800008F42AE08E010F5D1F4F822E912CB12CAD
:100A9000A12CBF01A50194010E943611F901CA01E0
:100AA0006A300CF5605DD8016E938D01232B242BE9
:100AB000252B79F790E080E0109721F0BD01C70168
:100AC0000E941A05A1960FB6F894DEBF0FBECDBFE7
:100AD000DF91CF911F910F91FF90EF90BF90AF905A
:100AE0009F908F900895695CDECFCF92DF92EF9256
:100AF000FF920F931F93CF93DF93EC016A017B0169
:100B0000E881F9810190F081E02D6DE209958C0179
:100B100044275527BA014C195D096E097F092AE05F
:100B2000CE010E942905800F911FDF91CF911F9167
:100B30000F91FF90EF90DF90CF9008950C941A05DD
:100B4000AB01770F660B770B77FD0C9475052AE0E8
:100B50000C9429050F931F93CF938C01C62F0E94ED
:100B6000DC036C2F6460C8010E94DC036C2F6B7F78
:100B7000C8010E94DC0383EC90E00197F1F7CF916C
:100B80001F910F9108950F931F93CF93DF938C01C3
:100B9000D62FC42F607F642B0E94AA0580E1D89FC6
:100BA000B00111246C2BC801DF91CF911F910F91DF
:100BB0000C94AA0540E061E08AE893E00E94C30536
:100BC0008BE39FE10197F1F70895CF93DF93CDB7C2
:100BD000DEB728970FB6F894DEBF0FBECDBF98E002
:100BE000E0E1F1E0DE01119601900D929A95E1F7B6
:100BF00090919203961708F46FEF262F30E0220FA2
:100C0000331F41E050E04C0F5D1F240F351FF901E9
:100C10006081680F606840E08AE893E028960FB62C
:100C2000F894DEBF0FBECDBFDF91CF910C94C3050A
:100C300041E00E94C30581E090E00895FC018081BD
:100C40009181009711F00C947E0F60E070E0CB0171
:100C50000895FC0180819181009711F00C940E128F
:100C600008950F931F93CF93DF93EC0188819981AF
:100C7000009759F02A813B812617370730F081E031
:100C8000DF91CF911F910F9108958B016F5F7F4F7F
:100C90000E949712009759F0998388831B830A83D7
:100CA0002C813D81232B59F7FC011082E8CF80E095
:100CB000E7CFEF92FF920F931F93CF93DF9300D074
:100CC000CDB7DEB78C0169831A82FC01E480F58020
:100CD000FFEFEF1AFF0AB7010E943106882381F067
:100CE000F8012081318184819581BE016F5F7F4F42
:100CF000820F931F0E945D13F801F582E48281E068
:100D00000F900F90DF91CF911F910F91FF90EF9077
:100D10000895EF92FF920F931F93CF93DF93EC010F
:100D20007B018A01BA010E94310628813981811133
:100D300014C02115310519F0C9010E940E12198243
:100D400018821D821C821B821A82CE01DF91CF91F4
:100D50001F910F91FF90EF9008951D830C83B701B1
:100D6000C9010E945D13F1CFFC0111821082138230
:100D700012821582148250E040E06EE971E00C941A
:100D80008906AF92BF92CF92DF92EF92FF920F93BC
:100D90001F93CF93DF93EC016B015A017901241764
:100DA000350720F48B2D5901E42EF82ECE010E9438
:100DB000B406D60114960D911C91A016B10628F523
:100DC000E016F10608F48701D601ED91FC91119728
:100DD000E00FF11FF08010826D917C916A0D7B1DF8
:100DE00061157105F1F0FB0101900020E9F73197E1
:100DF000AF01461B570BCE010E948906F601808188
:100E00009181080F191FD801FC92CE01DF91CF917B
:100E10001F910F91FF90EF90DF90CF90BF90AF9018
:100E2000089588819981009711F00E940E1219820D
:100E300018821D821C821B821A82E0CFAF92BF9261
:100E4000CF92DF92EF92FF920F931F93CF93DF9396
:100E5000CDB7DEB762970FB6F894DEBF0FBECDBF39
:100E600001E08FE4E82EF12C99E4C92ED12C2CE47A
:100E7000A22EB12CCE010D960E94B406CE0107968B
:100E80000E94B4060E94BE0297FD09C08A309105F7
:100E900031F0682FCE0107960E945906F3CF2B85BB
:100EA0003C852115310521F0EF81F885309721F43B
:100EB00010921102E1E1F2E0108141E050E0BE0148
:100EC000695F7F4FCE0101960E94C1068D859E8588
:100ED000009709F44AC069817A816115710509F4A6
:100EE00042C04F8558892D813E814217530708F42F
:100EF0003AC00E945D138D819E819A8B898B1E82E0
:100F00001D82CE0101960E942906112309F474C0A6
:100F1000EFEBE10FEF3108F06FC00E2E000CFF0B6E
:100F2000EC56F84F0C9458111E08FC074408C607ED
:100F300027080B080508FC07FC07FC07FC07080846
:100F4000FC07FC07FC07FC07FC07FC07C108390885
:100F5000FC07B908FC07FC07FC07FC07FC07FC07BB
:100F6000FC07FC07E2080E940E1289819A819E8785
:100F70008D878B819C81988B8F878D819E819A8BA9
:100F8000898B1A8219821C821B82B9CF0E94DA05D2
:100F900060E080E00E94E50520E130E050E040E0C4
:100FA000BE01635F7F4FCE0101960E94C106BE0164
:100FB0006F5F7F4F8AE893E00E948D00CE0101961B
:100FC0000E94290661E080E00E94E50529893A89AE
:100FD00040E150E0BE01635F7F4FCE0101960E9469
:100FE000C106BE016F5F7F4F8AE893E00E948D00CB
:100FF000CE0101960E942906CE0107960E9429067D
:10100000CE010D960E94290635CF0E94F004F4CF40
:101010000E94C604F1CF89899A89892B69F3ED85ED
:10102000FE85309749F3808161E0843419F060E0F7
:10103000853511F78CE00E94FC01DECFCE010D96C4
:101040000E941E067093070160930601D5CFCE0162
:101050000D960E941E06161617061806190664F647
:101060006093020170930301809304019093050142
:10107000C3CFCE010D960E941E061616170618063F
:1010800019060CF0B9CFDECF009313020E94DA05E7
:1010900060E080E00E94E50568E771E08AE893E09F
:1010A0000E949E0561E080E00E94E505209100011C
:1010B0003091010180911202863060F58091120218
:1010C000813071F41092DC021092DB02B0920901BF
:1010D000A0920801809112028F5F80931202EACFE2
:1010E00080911202833049F41092DC021092DB02EC
:1010F000D0920901C0920801EDCF80911202853093
:10110000C9F62091DB023091DC02F0920901E092F5
:101110000801E0CF309301012093000110921302E7
:10112000109212020E94DA0560E080E00E94E5055C
:1011300067E871E08AE893E00E949E0561E080E044
:101140000E94E50562E971E08AE893E00E949E054D
:1011500060910001709101018AE893E00E94A0056E
:1011600068E873E180E090E00E9480020E94DA0566
:1011700043CFCE010D960E941E067093010160932D
:1011800000016AE971E081EE92E00E949E054091C3
:10119000000150910101052E000C660B770B77FFC3
:1011A0000BC081EE92E00E9475056CE971E081EE62
:1011B00092E00E941A0520CF2AE081EE92E00E9480
:1011C0002905F3CFCE0107960E942906CE010D9680
:1011D0000E94290662960FB6F894DEBF0FBECDBFFF
:1011E000DF91CF911F910F91FF90EF90DF90CF9003
:1011F000BF90AF90089585ED8093BC008091A002D0
:101200009091A102A091A202B091A3020796A11D04
:10121000B11D23E0B695A795979587952A95D1F7A7
:101220002091BC0024FD03C010929E0208954091BD
:10123000A0025091A1026091A2027091A302452BDD
:10124000462B472B69F30097A105B10541F02AE22F
:101250002A95F1F700C00197A109B109E1CF80916A
:101260009F020C9435031F920F920FB60F92112418
:101270002F933F934F935F936F937F938F939F939E
:10128000AF93BF93EF93FF9381EE92E00E941B0117
:10129000FF91EF91BF91AF919F918F917F916F914E
:1012A0005F914F913F912F910F900FBE0F901F9024
:1012B00018951F920F920FB60F9211242F938F93B0
:1012C0009F93EF93FF93E091F102F091F2028081FE
:1012D000E091F702F091F80282FD1BC090818091AD
:1012E000FA028F5F8F732091FB02821741F0E09129
:1012F000FA02F0E0EF51FD4F958F8093FA02FF91D3
:10130000EF919F918F912F910F900FBE0F901F9093
:1013100018958081F4CF1F920F920FB60F9211246F
:101320002F933F938F939F93AF93BF938091C70267
:101330009091C802A091C902B091CA023091C60230
:1013400023E0230F2D3758F50196A11DB11D2093E1
:10135000C6028093C7029093C802A093C902B093BB
:10136000CA028091CB029091CC02A091CD02B091A3
:10137000CE020196A11DB11D8093CB029093CC02A9
:10138000A093CD02B093CE02BF91AF919F918F9168
:101390003F912F910F900FBE0F901F90189526E848
:1013A000230F0296A11DB11DD2CF1F920F920FB62F
:1013B0000F9211242F933F934F935F936F937F93DB
:1013C0008F939F93AF93BF93EF93FF938091B90057
:1013D000887F803609F44AC0F0F5883209F4A7C046
:1013E00018F5803109F49BC0B8F4882309F4F9C0DA
:1013F000883009F494C0FF91EF91BF91AF919F9114
:101400008F917F916F915F914F913F912F910F90AD
:101410000FBE0F901F901895883109F488C0803254
:1014200051F780939C0214C0803409F49DC040F4AD
:101430008033B9F38833F9F680939C0285ECB0C011
:10144000803509F485C0883509F496C0883499F64A
:101450000E94FB08D0CF883909F48CC038F5883752
:1014600029F050F4883611F0803729F683E0809314
:101470009E021092770257C0883809F47BC08039E9
:1014800019F0803809F0B7CF80917702803208F0E8
:1014900071C0E091770281E08E0F80937702809196
:1014A000BB00F0E0E95AFD4F80833DC0803B39F03E
:1014B000E0F4803A09F479C0883A09F09CCF84E0DE
:1014C00080939E021092560210925502E091D10232
:1014D000F091D20209958091550281110FC081E0EF
:1014E000809355021092350209C0803C09F4A6CFC2
:1014F000883C09F4A3CF883B09F07DCFE0915602E8
:1015000081E08E0F80935602F0E0EB5CFD4F80810E
:101510008093BB00909156028091550229C0809122
:1015200079028093BB0085EC8093BC0064CF9091DE
:101530009B0280919A02981758F5E0919B0281E0F6
:101540008E0F80939B02F0E0E658FD4F8081E9CF3B
:10155000E0919B0281E08E0F80939B028091BB0003
:10156000F0E0E658FD4F808390919B0280919A02B3
:101570009817C8F285E8D8CFE0919B0281E08E0FE2
:1015800080939B028091BB00F0E0E658FD4F808382
:1015900080919D0281115CCF81E08093780284EA82
:1015A0008093BC0010929E0226CF85EC8093BC00F5
:1015B00010929E0280917702803230F4E09177029F
:1015C000F0E0E95AFD4F10826091770270E0E091FF
:1015D000CF02F091D00287E592E009951092770250
:1015E0000ACF10929C0234CF1F920F920FB60F9227
:1015F00011242F933F934F935F936F937F938F9318
:101600009F93AF93BF93EF93FF93809102019091CB
:101610000301A0910401B09105019093850080938E
:1016200084008091DB029091DC02892B41F480914F
:1016300013028823E9F1809112028823C9F161E045
:101640008BE00E94FC0188B1E0911002F0E0E85EBE
:10165000FE4F80739081892B88B980910801909109
:1016600009018934910551F480911002811104C05F
:1016700087E0809310020FC08150FBCF809108015A
:10168000909109018C34910531F4809110028730DA
:1016900001F510921002809113028823E1F08091ED
:1016A000DB029091DC0201969093DC028093DB02D6
:1016B000FF91EF91BF91AF919F918F917F916F912A
:1016C0005F914F913F912F910F900FBE0F901F9000
:1016D00018958F5FCECF8091DB029091DC0201974D
:1016E000E3CF1F920F920FB60F9211240F931F9307
:1016F0002F933F934F935F936F937F938F939F931A
:10170000AF93BF93EF93FF930E94B20200910C023C
:1017100010910D0220910E0230910F02601B710B8F
:10172000820B930B643F71408105910598F0809185
:101730001302882311F1809112028F5F80931202AD
:101740000E94B20260930C0270930D0280930E020D
:1017500090930F02FF91EF91BF91AF919F918F9165
:101760007F916F915F914F913F912F911F910F91B9
:101770000F900FBE0F901F901895809108019091C7
:1017800009018334910589F0809108019091090144
:101790008C34910551F080910801909109018F34AA
:1017A000910531F40E94C604CBCF0E94F004C8CF4B
:1017B00080910801909109018934910509F6F2CFD1
:1017C000E1EEF2E01382128288EE93E0A0E0B0E056
:1017D00084839583A683B7832CE431E0318320830F
:1017E00025EC30E03587248724EC30E037872687E6
:1017F00020EC30E0318B208B21EC30E0338B228BDE
:1018000022EC30E0358B248B26EC30E0378B268BB6
:10181000118E128E138E148EEEE7F3E01382128275
:1018200084839583A683B7838EE591E0918380833B
:10183000EAE8F3E01382128280E791E091838083EB
:1018400087E2848380E1818782E08287138608951E
:10185000CF93DF9300D000D000D0CDB7DEB778941F
:1018600084B5826084BD84B5816084BD85B58260A5
:1018700085BD85B5816085BD80916E008160809356
:101880006E001092810080918100826080938100BF
:1018900080918100816080938100809180008160CF
:1018A000809380008091B10084608093B10080912A
:1018B000B00081608093B00080917A008460809352
:1018C0007A0080917A00826080937A0080917A0019
:1018D000816080937A0080917A00806880937A009A
:1018E0001092C100E091F102F091F20292E0908337
:1018F000E091ED02F091EE021082E091EF02F091A2
:10190000F0028FEC80831092F902E091F502F091E1
:10191000F60286E08083E091F302F091F402808188
:1019200080618083E091F302F091F402808188600D
:101930008083E091F302F091F402808180688083DB
:10194000E091F302F091F40280818F7D8083F8941E
:1019500080916900826080936900E89A87B18F6006
:1019600087B910928000109281004DEE55E860E03A
:1019700070E040930201509303016093040170935F
:1019800005014091020150910301609104017091A1
:1019900005015093850040938400909381008091CD
:1019A0006F00816080936F00789400E411E0F8018B
:1019B000F1908F0160E08F2D0E942A0261E08F2D4F
:1019C0000E94FC01F1E004341F0789F761E08AE01E
:1019D0000E942A0261E089E00E942A0261E088E018
:1019E0000E942A0261E087E00E942A0261E08BE007
:1019F0000E942A0261E08CE00E942A0218E0109303
:101A0000950360E08AE893E00E94DC031092D6021E
:101A10001092D5021092D4021092D3020E941703A2
:101A200088EC90E09093D2028093D10289EC90E010
:101A30009093D0028093CF0210928F0380919403F1
:101A4000823008F08AC18093920362E370E080E004
:101A500090E00E948002609195038AE893E00E94E2
:101A6000DC0368EE73E080E090E00E94800260E3B7
:101A70008AE893E00E94AA050BE416E4C8010197E6
:101A8000F1F760E38AE893E00E94AA05C801019794
:101A9000F1F760E38AE893E00E94AA0583E592E00B
:101AA0000197F1F760E28AE893E00E94AA0560914D
:101AB0008F03606240E08AE893E00E94C30584E0FF
:101AC0008093900340E06CE08AE893E00E94C305B5
:101AD0000E94DA0582E08093910340E066E08AE8A4
:101AE00093E00E94C30540E062E08AE893E00E9430
:101AF000C3050BE31FE1C8010197F1F76FE971E03E
:101B00008AE893E00E949E0561E080E00E94E5057E
:101B10006FEA71E08AE893E00E949E050E941E072A
:101B200064E670E080E090E00E9480020E94DA05A6
:101B300040E062E08AE893E00E94C305C801019793
:101B4000F1F760EC71E08AE893E00E949E0568EE90
:101B500073E080E090E00E9480020E94DA0538EE97
:101B6000232E33E0332E412C512C94E4E92E91E0C6
:101B7000F92E20E3C22E21E0D22E10E0F7010191D0
:101B80007F0160E0802F0E94FC01460180E4A82EC6
:101B900081E0B82EF50171905F01872D0E94D3017D
:101BA000892B39F4872D0E94D301892BD9F3F401B5
:101BB0001081F4E08F0E911C24E4A21621E0B206FD
:101BC00049F761E0802F0E94FC013FEFC31AD30A5E
:101BD00048E4E41641E0F40689F6112301F1CE0150
:101BE00001960E94B4066BE4CE0101960E9459064C
:101BF000612FCE0101960E9459066AE0CE0101963E
:101C00000E945906BE016F5F7F4F81EE92E00E94F5
:101C10008D00CE0101960E9429060E941E07809128
:101C20000801909109018F34910509F099C00E9433
:101C3000B2020091DD021091DE022091DF023091AC
:101C4000E002AB01BC01401B510B620B730B809196
:101C5000060190910701092E000CAA0BBB0B8417FB
:101C60009507A607B70708F07BC00E94C6048091BD
:101C7000DB029091DC02892B59F58091080190914B
:101C800009018934910509F018C14FE450E05093DF
:101C90000901409308010E94B2026093DD02709333
:101CA000DE028093DF029093E0020E94DA0560E09A
:101CB00080E00E94E50565EE71E08AE893E00E940D
:101CC0009E0560E08BE00E94FC0188B1807388B9BA
:101CD0000E94B2020091D7021091D8022091D9023D
:101CE0003091DA02601B710B820B930B623071052D
:101CF0008105910528F10E94B2026093D70270938A
:101D0000D8028093D9029093DA02CE0101960E9404
:101D1000B4066FE5CE0101960E9459066AE0CE0135
:101D200001960E945906BE016F5F7F4F81EE92E0DF
:101D30000E948D000E941E07CE0101960E94290676
:101D4000E0E0F0E0EF2B09F410CF0E9407018823B8
:101D500009F40BCF0E94000008CF10938F0373CEBD
:101D600080910801909109018F34910509F07FCF8E
:101D70000E94B2020091DD021091DE022091DF028A
:101D80003091E0026B017C01C01AD10AE20AF30A29
:101D900097018601809106019091070165E070E04E
:101DA0000E942211CB01770FAA0BBB0B8017910762
:101DB000A207B30708F05BCF0E94B2020091DD02D8
:101DC0001091DE022091DF023091E002601B710B66
:101DD000820B930B24E630E040E050E00E94361185
:101DE000CA01B9012AE030E040E050E00E9436111B
:101DF000672B682B692B09F03ACF0E94DA0560E067
:101E000080E00E94E5056EEC71E08AE893E00E94B4
:101E10009E0561E080E00E94E5058091DD029091E1
:101E2000DE02A091DF02B091E0020E94B202409176
:101E3000DD025091DE026091DF027091E00280913C
:101E4000060190910701092E000CAA0BBB0B6C0137
:101E50007D01C40ED51EE61EF71E0E94B202A70128
:101E60009601261B370B480B590BCA01B901A20179
:101E700091010E943611CA01B9010E94BA0F20E0F7
:101E800030E040E05FE30E9480100E94EC1060317F
:101E900037E2730718F060E070E0CB018AE893E066
:101EA0000E94A00561E088E00E94E5056DED71E00B
:101EB0008AE893E00E949E05DACE80910801909115
:101EC00009018C34910509F0FCCE83E490E09093F5
:101ED0000901809308010E94DA0560E080E00E9419
:101EE000E50564EF71E08AE893E00E949E0561E0F9
:101EF00080E00E94E50564E072E0DFCE1F93FC0104
:101F000099278827BC01E89411911032E9F3193020
:101F100010F01E30C8F31B3251F01D3249F46894A2
:101F200006C00E94A50F610F711D811D911D1191A9
:101F300010531A30B0F33EF49095809570956195EA
:101F40007F4F8F4F9F4F1F910895592F482F372F45
:101F5000262F660F771F881F991F660F771F881F10
:101F6000991F620F731F841F951F660F771F881FAD
:101F7000991F0895E89409C097FB3EF490958095C9
:101F8000709561957F4F8F4F9F4F9923A9F0F92F3F
:101F900096E9BB279395F695879577956795B795BD
:101FA000F111F8CFFAF4BB0F11F460FF1BC06F5FA3
:101FB0007F4F8F4F9F4F16C0882311F096E911C0B5
:101FC000772321F09EE8872F762F05C0662371F0D6
:101FD00096E8862F70E060E02AF09A95660F771FEA
:101FE000881FDAF7880F9695879597F9089597F9DE
:101FF0009F6780E870E060E008959FEF80EC0895AF
:1020000000240A94161617061806090608950024D7
:102010000A9412161306140605060895092E039451
:10202000000C11F4882352F0BB0F40F4BF2B11F4C5
:1020300060FF04C06F5F7F4F8F4F9F4F089557FD24
:102040009058440F551F59F05F3F71F04795880F26
:1020500097FB991F61F09F3F79F0879508951216BD
:1020600013061406551FF2CF4695F1DF08C0161669
:1020700017061806991FF1CF86957105610508941A
:102080000895E894BB2766277727CB0197F9089531
:102090002F923F924F925F926F927F928F929F9278
:1020A000AF92BF92CF92DF92EF92FF920F931F9366
:1020B000CF93DF93CDB7DEB7CA1BDB0B0FB6F89417
:1020C000DEBF0FBECDBF09942A88398848885F8457
:1020D0006E847D848C849B84AA84B984C884DF80C8
:1020E000EE80FD800C811B81AA81B981CE0FD11DAC
:1020F0000FB6F894DEBF0FBECDBFED010895505866
:10210000BB27AA270E9497100C940E100E94001063
:1021100038F00E94071020F039F49F3F19F426F49C
:102120000C94FD0F0EF4E095E7FB0C94F70FE92FEC
:102130000E941F1058F3BA176207730784079507A8
:1021400020F079F4A6F50C9441100EF4E0950B2ED6
:10215000BA2FA02D0B01B90190010C01CA01A001F9
:102160001124FF27591B99F0593F50F4503E68F154
:102170001A16F040A22F232F342F4427585FF3CF95
:10218000469537952795A795F0405395C9F77EF466
:102190001F16BA0B620B730B840BBAF09150A1F0AF
:1021A000FF0FBB1F661F771F881FC2F70EC0BA0F35
:1021B000621F731F841F48F4879577956795B795BD
:1021C000F7959E3F08F0B0CF9395880F08F09927B8
:1021D000EE0F9795879508950E94F3106894B111BA
:1021E0000C94421008950E94271088F09F5798F091
:1021F000B92F9927B751B0F0E1F0660F771F881F0C
:10220000991F1AF0BA95C9F714C0B13091F00E9425
:102210004110B1E008950C944110672F782F882762
:10222000B85F39F0B93FCCF3869577956795B3954C
:10223000D9F73EF490958095709561957F4F8F4FBB
:102240009F4F089597FB072E16F4009407D077FD53
:1022500009D00E945E1107FC05D03EF4909581954F
:102260009F4F0895709561957F4F0895A1E21A2EB2
:10227000AA1BBB1BFD010DC0AA1FBB1FEE1FFF1F2A
:10228000A217B307E407F50720F0A21BB30BE40B7A
:10229000F50B661F771F881F991F1A9469F76095C1
:1022A0007095809590959B01AC01BD01CF0108957B
:1022B000EE0FFF1F0590F491E02D0994AA1BBB1BA4
:1022C00051E107C0AA1FBB1FA617B70710F0A61B36
:1022D000B70B881F991F5A95A9F780959095BC0157
:1022E000CD0108950F931F93CF93DF938230910513
:1022F00010F482E090E0E0919803F091990330E0CF
:1023000020E0B0E0A0E0309799F42115310509F400
:102310004AC0281B390B24303105D8F58A819B81AE
:102320006115710589F1FB0193838283FE0111C060
:10233000408151810281138148175907E0F0481705
:10234000590799F4109761F012960C93129713960F
:102350001C933296CF01DF91CF911F910F91089579
:102360000093980310939903F4CF2115310551F090
:102370004217530738F0A901DB019A01BD01DF01C3
:10238000F801C1CFEF01F9CF90939903809398039F
:10239000CDCFFE01E20FF31F8193919322503109BB
:1023A00039832883D7CF2091960330919703232B2D
:1023B00041F420910C0130910D013093970320934B
:1023C000960320910A0130910B012115310541F44A
:1023D0002DB73EB740910E0150910F01241B350BD4
:1023E000E0919603F0919703E217F307A0F42E1BF8
:1023F0003F0B2817390778F0AC014E5F5F4F241769
:10240000350748F04E0F5F1F509397034093960394
:10241000819391939FCFF0E0E0E09CCFCF93DF9347
:102420000097E9F0FC01329713821282A091980381
:10243000B0919903ED0130E020E01097A1F42081E4
:102440003181820F931F20919603309197032817B3
:10245000390709F061C0F0939703E0939603DF9189
:10246000CF910895EA01CE17DF07E8F54A815B8135
:102470009E0141155105B1F7E901FB83EA834991BA
:102480005991C40FD51FEC17FD0761F4808191812C
:102490000296840F951FE901998388838281938135
:1024A0009B838A83F0E0E0E012968D919C911397D4
:1024B0000097B9F52D913C911197CD010296820FAD
:1024C000931F20919603309197032817390739F607
:1024D000309751F51092990310929803B093970397
:1024E000A0939603BCCFD383C28340815181840FD4
:1024F000951FC817D90761F44E5F5F4F8881998196
:10250000480F591F518340838A819B819383828323
:102510002115310509F0B0CFF0939903E0939803AA
:102520009ECFFD01DC01C0CF13821282D7CFB0E075
:10253000A0E0EDE9F2E10C944A108C01009751F40F
:10254000CB010E9472118C01C801CDB7DEB7E0E16A
:102550000C946610FC01E60FF71F9C012250310914
:10256000E217F30708F49DC0D901CD91DC911197D2
:10257000C617D70798F0C530D10530F3CE010497C0
:102580008617970708F3C61BD70B2297C193D193E1
:102590006D937C93CF010E940E12D6CF5B01AC1AD3
:1025A000BD0A4C018C0E9D1EA0919803B091990319
:1025B000512C412CF12CE12C109731F58091960390
:1025C000909197038815990509F05CC04616570647
:1025D00008F058C080910A0190910B01009741F4D6
:1025E0008DB79EB740910E0150910F01841B950B42
:1025F000E817F90708F055C0F0939703E0939603A6
:10260000F90171836083A0CF8D919C9111971296EF
:102610006C90129713967C901397A815B90559F5ED
:102620006C0142E0C40ED11CCA14DB0420F1AC01E1
:102630004A195B09DA011296159780F0628273825B
:1026400051834083D9016D937C93E114F10471F0BF
:10265000D7011396FC93EE93129776CF22968C0FA8
:102660009D1FF90191838083F301EFCFF0939903CC
:10267000E093980369CF4816590608F42C017D01B0
:10268000D3019ACFCB010E9472117C01009749F0CF
:10269000AE01B8010E945413C8010E940E128701B6
:1026A00053CF10E000E050CFFB01DC0102C00190ED
:1026B0000D9241505040D8F70895FB01DC01019084
:0C26C0000D920020E1F70895F894FFCF80
:1026CC00C8007AE1000060EA430000009A03800031
:1026DC000000400014005400010204080102040828
:1026EC0003060C0903060C0901030206040C080975
:1026FC003132334134353642373839432A3023446A
:10270C00030405060A090807000000003D019B00B0
:10271C00CA008A01FB00D900ED0000000000AD03E7
:10272C008003C304560379036603570300000000BB
:10273C0018069B00C3048C0043616C69627261745F
:10274C00696E672E2E2E0043616C6962726174652E
:10275C00640053746570733A200056000D0A0057DC
:10276C00616974696E6720666F7220525069004C03
:10277C006F6164696E6720636F6E6669672E2E00E9
:10278C00496E697420636F6D706C65746500446F7D
:10279C006F7220636C6F736520696E3A00736563AA
:1027AC006F6E647300416363657373206772616E4F
:1027BC0074656400456E7465722070617373776F15
:0A27CC0072643A005F5F5F5F000077
:00000001FF
