:100000000C9462000C947D0B0C948A000C948A0072
:100010000C948A000C948A000C948A000C948A0038
:100020000C948A000C948A000C948A000C948A0028
:100030000C948A000C94000B0C948A000C948A0097
:100040000C9497090C948A000C9465090C943F0950
:100050000C948A000C948A000C948A000C948A00F8
:100060000C94E1090C948A00000000002400270091
:100070002A0000000000250028002B0000000000DE
:1000800023002600290004040404040404040202DA
:100090000202020203030303030301020408102007
:1000A0004080010204081020010204081020000012
:1000B0000008000201000003040700000000000027
:1000C0000000EC0B11241FBECFEFD8E0DEBFCDBF88
:1000D00023E0AAE0B2E001C01D92AE39B207E1F719
:1000E00012E0A0E0B1E0E2EDF6E202C005900D9270
:1000F000AA30B107D9F710E0C2E6D0E004C02197DA
:10010000FE010E946F11C136D107C9F70E94340C5D
:100110000C9467130C9400000895DB0114964D9124
:100120005C9115976D917C91DC01ED91FC910280C1
:10013000F381E02D0994AF92BF92CF92DF92EF92BC
:10014000FF920F931F93CF93DF936C017B018B0181
:10015000040F151FEB015E01AE18BF08C017D107D1
:1001600059F06991D601ED91FC910190F081E02D5B
:10017000C6010995892B79F7C501DF91CF911F91B0
:100180000F91FF90EF90DF90CF90BF90AF900895C8
:1001900008950895FC01538D448D252F30E0842F60
:1001A00090E0821B930B541710F0CF96089501979F
:1001B0000895FC01918D828D981761F0A28DAE0F8C
:1001C000BF2FB11D5D968C91928D9F5F9F73928F13
:1001D00090E008958FEF9FEF0895FC01918D828D3F
:1001E000981731F0828DE80FF11D858D90E008950C
:1001F0008FEF9FEF0895FC01918D228D892F90E064
:10020000805C9F4F821B91098F739927089585EE1B
:1002100092E00E94FB0021E0892B09F420E0822F6C
:10022000089580E090E0892B29F00E940701811158
:100230000C9400000895FC01A48DA80FB92FB11DE6
:10024000A35ABF4F2C91848D90E001968F7399270C
:10025000848FA689B7892C93A089B1898C918370EA
:1002600080648C93938D848D981306C00288F389E3
:10027000E02D80818F7D80830895EF92FF920F9310
:100280001F93CF93DF93EC0181E0888F9B8D8C8D42
:1002900098131AC0E889F989808185FF15C09FB736
:1002A000F894EE89FF896083E889F98980818370F9
:1002B000806480839FBF81E090E0DF91CF911F91A8
:1002C0000F91FF90EF900895F62E0B8D10E00F5FC9
:1002D0001F4F0F731127E02E8C8D8E110CC00FB69F
:1002E00007FCFACFE889F989808185FFF5CFCE0137
:1002F0000E941B01F1CFEB8DEC0FFD2FF11DE35A96
:10030000FF4FF0829FB7F8940B8FEA89FB898081B9
:100310008062CFCFCF93DF93EC01888D8823B9F033
:10032000AA89BB89E889F9898C9185FD03C0808100
:1003300086FD0DC00FB607FCF7CF8C9185FFF2CF7D
:10034000808185FFEDCFCE010E941B01E9CFDF91B7
:10035000CF910895833081F028F4813099F0823074
:10036000A9F008958730A9F08830C9F08430B1F43D
:10037000809180008F7D03C0809180008F77809373
:100380008000089584B58F7784BD089584B58F7DEE
:10039000FBCF8091B0008F778093B000089580915B
:1003A000B0008F7DF9CFCF93DF93282F30E0F90194
:1003B000E255FF4F8491F901E656FF4FD491F901C0
:1003C000EA57FF4FC491CC23A1F081110E94AA01EA
:1003D000EC2FF0E0EE0FFF1FE458FF4FA591B49112
:1003E000EC91ED2381E090E009F480E0DF91CF9182
:1003F000089580E090E0FACF1F93CF93DF93282FEA
:1004000030E0F901E255FF4F8491F901E656FF4FC4
:10041000D491F901EA57FF4FC491CC23A9F0162FCC
:1004200081110E94AA01EC2FF0E0EE0FFF1FEE58A1
:10043000FF4FA591B4918FB7F894EC91111108C0BA
:10044000D095DE23DC938FBFDF91CF911F9108956C
:10045000DE2BF8CFCF93DF9390E0FC01E656FF4F01
:1004600024918A579F4FFC0184918823D1F090E01A
:10047000880F991FFC01E859FF4FA591B491FC0129
:10048000EE58FF4FC591D49161110EC09FB7F894FB
:100490008C91E22FE0958E238C932881E223E883D0
:1004A0009FBFDF91CF9108958FB7F894EC91E22B25
:1004B000EC938FBFF6CF3FB7F8948091CB02909129
:1004C000CC02A091CD02B091CE0226B5A89B05C06A
:1004D0002F3F19F00196A11DB11D3FBFBA2FA92FC3
:1004E000982F8827BC01CD01620F711D811D911DC0
:1004F00042E0660F771F881F991F4A95D1F708952C
:100500008F929F92AF92BF92CF92DF92EF92FF9223
:100510004B015C010E945B026B017C010E945B024B
:100520006C197D098E099F09683E7340810591050C
:10053000A8F321E0821A9108A108B10888EEC80E3C
:1005400083E0D81EE11CF11C81149104A104B104C4
:1005500029F7FF90EF90DF90CF90BF90AF909F90E2
:100560008F9008952FB7F8946091C7027091C802D8
:100570008091C9029091CA022FBF08950F931F93D3
:100580000E94B2026093ED027093EE028093EF023C
:100590009093F00285EE92E00E94D90097FF1DC073
:1005A0000E94B2020091ED021091EE022091EF0242
:1005B0003091F002601B710B820B930B0091E902EA
:1005C0001091EA022091EB023091EC026017710762
:1005D00082079307F8F28FEF9FEF1F910F91089515
:1005E00020915502260F3327331F21323105ECF4B9
:1005F00020919E02FC0190E080E0243069F082E0CE
:100600000895A09155022191AC014B5C5D4FA40F60
:10061000B52FB11D2C930196861798F38091550242
:10062000680F6093550280E0089581E0089510926C
:100630009E0281E080939D021092780261E082E147
:100640000E94FC0161E083E10E94FC01E9EBF0E023
:1006500080818E7F808380818D7F808388E48093FA
:10066000B80085E48093BC000895CF93DF9391E0B8
:10067000909334028823B9F0C091B800D091BA00A9
:100680008091BC008A7B8093BC0060E082E10E9484
:10069000FC0160E083E10E94FC010E941703D093FB
:1006A000BA00C093B800DF91CF9108950895E0910A
:1006B000D6028091D502E81730F4F0E0EC5EFD4FF1
:1006C000808190E008958FEF9FEF08959091D6027A
:1006D0008091D5022FEF3FEF981748F4E92FF0E013
:1006E000EC5EFD4F208130E09F5F9093D602C90100
:1006F00008958091D5029091D602891B990B089597
:10070000CF92DF92EF92FF920F931F93CF93DF93DD
:100710007C01CB018A012091A402222389F0EB0104
:100720006B01C40ED51ECC15DD0569F06991D701AA
:10073000ED91FC910190F081E02DC7010995F3CF77
:10074000642F0E94F002C801DF91CF911F910F9199
:10075000FF90EF90DF90CF900895CF93DF931F929B
:10076000CDB7DEB769832091A4022223F9F020914E
:10077000D302203258F021E030E0FC0133832283A1
:1007800090E080E00F90DF91CF9108958091D402A6
:10079000E82FF0E0EB55FD4F998190838F5F8093B8
:1007A000D4028093D30281E090E0ECCF61E0CE01EF
:1007B00001960E94F002F7CFCF92DF92EF92FF9264
:1007C0000F931F93CF93DF93FC01C48121E020930B
:1007D000A402C093C5021092D4021092D302838562
:1007E000682B82E893E00E94AD03D091D302D1320E
:1007F00008F092C00E945B026B017C0180919E0216
:10080000811165C082E080939E0281E080939D0209
:100810008FEF80939C0210929B02D0939A02A5EADC
:10082000B2E0EAE7F2E080E0D81385C010927902E6
:1008300080917902CC0FC82BC09379028091780205
:10084000813009F07CC0109278020E945B026B013B
:100850007C01809179028093BB008091A0029091ED
:10086000A102A091A202B091A302892B8A2B8B2B0B
:1008700099F00E945B020091A0021091A1022091C8
:10088000A2023091A3026C197D098E099F090617F7
:10089000170728073907E0F18091BC0083FDD9CF05
:1008A00085EC8093BC000E945B026B017C0180910F
:1008B0009E02823009F445C080919C028F3F61F115
:1008C00080919C02803241F180919C0225C08091F0
:1008D000A0029091A102A091A202B091A302892B43
:1008E0008A2B8B2B09F48ACF0E945B020091A00215
:1008F0001091A1022091A2023091A3026C197D09EE
:100900008E099F09061717072807390708F076CFC1
:1009100080919F020E9435031092D4021092D3025C
:100920001092A402DF91CF911F910F91FF90EF9051
:10093000DF90CF9008959D9191938F5F75CF85EE55
:10094000B0CF8091A0029091A102A091A202B0919B
:10095000A302892B8A2B8B2B09F4A9CF0E945B025F
:100960000091A0021091A1022091A2023091A30255
:100970006C197D098E099F09061717072807390783
:1009800008F095CFC5CF90E080E0089580910801F0
:10099000909109018C349105D9F0809108019091D2
:1009A000090183349105A1F08CE490E09093090152
:1009B000809308012091DB023091DC0280910001DC
:1009C00090910101232B29F49093DC028093DB02A8
:1009D00008952091DB023091DC02821B930BF4CF4F
:1009E000809108019091090189349105D9F0809195
:1009F0000801909109018F349105A1F089E490E0FC
:100A000090930901809308012091DB023091DC0270
:100A10008091000190910101232B29F49093DC0235
:100A20008093DB0208952091DB023091DC02821B6F
:100A3000930BF4CFFB0101900020E9F73197AF0150
:100A4000461B570BDC01ED91FC910280F381E02DF8
:100A500009948F929F92AF92BF92EF92FF920F9361
:100A60001F93CF93DF93CDB7DEB7A1970FB6F8945E
:100A7000DEBF0FBECDBF7C01FA01CB0119A222302F
:100A800008F42AE08E010F5D1F4F822E912CB12CAD
:100A9000A12CBF01A50194010E944D11F901CA01C9
:100AA0006A300CF5605DD8016E938D01232B242BE9
:100AB000252B79F790E080E0109721F0BD01C70168
:100AC0000E941A05A1960FB6F894DEBF0FBECDBFE7
:100AD000DF91CF911F910F91FF90EF90BF90AF905A
:100AE0009F908F900895695CDECFCF92DF92EF9256
:100AF000FF920F931F93CF93DF93EC016A017B0169
:100B0000E881F9810190F081E02D6DE209958C0179
:100B100044275527BA014C195D096E097F092AE05F
:100B2000CE010E942905800F911FDF91CF911F9167
:100B30000F91FF90EF90DF90CF9008950C941A05DD
:100B4000AB01770F660B770B77FD0C9475052AE0E8
:100B50000C9429050F931F93CF938C01C62F0E94ED
:100B6000DC036C2F6460C8010E94DC036C2F6B7F78
:100B7000C8010E94DC0383EC90E00197F1F7CF916C
:100B80001F910F9108950F931F93CF93DF938C01C3
:100B9000D62FC42F607F642B0E94AA0580E1D89FC6
:100BA000B00111246C2BC801DF91CF911F910F91DF
:100BB0000C94AA0540E061E08EE893E00E94C30532
:100BC0008BE39FE10197F1F70895CF93DF93CDB7C2
:100BD000DEB728970FB6F894DEBF0FBECDBF98E002
:100BE000E0E1F1E0DE01119601900D929A95E1F7B6
:100BF00090919603961708F46FEF262F30E0220F9E
:100C0000331F41E050E04C0F5D1F240F351FF901E9
:100C10006081680F606840E08EE893E028960FB628
:100C2000F894DEBF0FBECDBFDF91CF910C94C3050A
:100C300041E00E94C30581E090E00895FC018081BD
:100C40009181009711F00C94A90F60E070E0CB0146
:100C50000895FC0180819181009711F00C9411128C
:100C600008950F931F93CF93DF93EC0188819981AF
:100C7000009759F02A813B812617370730F081E031
:100C8000DF91CF911F910F9108958B016F5F7F4F7F
:100C90000E949A12009759F0998388831B830A83D4
:100CA0002C813D81232B59F7FC011082E8CF80E095
:100CB000E7CFEF92FF920F931F93CF93DF9300D074
:100CC000CDB7DEB78C0169831A82FC01E480F58020
:100CD000FFEFEF1AFF0AB7010E943106882381F067
:100CE000F8012081318184819581BE016F5F7F4F42
:100CF000820F931F0E946013F801F582E48281E065
:100D00000F900F90DF91CF911F910F91FF90EF9077
:100D10000895EF92FF920F931F93CF93DF93EC010F
:100D20007B018A01BA010E94310628813981811133
:100D300014C02115310519F0C9010E941112198240
:100D400018821D821C821B821A82CE01DF91CF91F4
:100D50001F910F91FF90EF9008951D830C83B701B1
:100D6000C9010E946013F1CFFC011182108213822D
:100D700012821582148250E040E06AE771E00C9420
:100D80008906AF92BF92CF92DF92EF92FF920F93BC
:100D90001F93CF93DF93EC016B015A017901241764
:100DA000350720F48B2D5901E42EF82ECE010E9438
:100DB000B406D60114960D911C91A016B10628F523
:100DC000E016F10608F48701D601ED91FC91119728
:100DD000E00FF11FF08010826D917C916A0D7B1DF8
:100DE00061157105F1F0FB0101900020E9F73197E1
:100DF000AF01461B570BCE010E948906F601808188
:100E00009181080F191FD801FC92CE01DF91CF917B
:100E10001F910F91FF90EF90DF90CF90BF90AF9018
:100E2000089588819981009711F00E94111219820A
:100E300018821D821C821B821A82E0CFAF92BF9261
:100E4000CF92DF92EF92FF920F931F93CF93DF9396
:100E5000CDB7DEB762970FB6F894DEBF0FBECDBF39
:100E600001E08FE4E82EF12C99E4C92ED12C2CE47A
:100E7000A22EB12CCE010D960E94B406CE0107968B
:100E80000E94B4060E94BE0297FD09C08A309105F7
:100E900031F0682FCE0107960E945906F3CF2B85BB
:100EA0003C852115310521F0EF81F885309721F43B
:100EB00010921102E1E1F2E0108141E050E0BE0148
:100EC000695F7F4FCE0101960E94C1068D859E8588
:100ED000009709F456C069817A816115710509F49A
:100EE0004EC04F8558892D813E814217530708F423
:100EF00046C00E9460138D819E819A8B898B1E82D1
:100F00001D82CE0101960E942906112309F480C09A
:100F10001F3509F463C168E585EE92E00E943D014A
:100F2000BE01635F7F4F85EE92E00E948D0068E70F
:100F300071E085EE92E00E941A05EFEBE10FE631D9
:100F400008F066C00E2E000CFF0BE755F84F0C940E
:100F50006F112A0808085008D2073308170811082B
:100F600008080808080808081408080808080808F5
:100F7000080808080808CD0845080808C5080E94A0
:100F8000111289819A819E878D878B819C81988B94
:100F90008F878D819E819A8B898B1A8219821C8200
:100FA0001B82ADCF0E94DA0560E080E00E94E5057B
:100FB00020E130E050E040E0BE01635F7F4FCE01B2
:100FC00001960E94C106BE016F5F7F4F8EE893E0DD
:100FD0000E948D00CE0101960E94290661E080E00A
:100FE0000E94E50529893A8940E150E0BE01635F2E
:100FF0007F4FCE0101960E94C106BE016F5F7F4FF9
:101000008EE893E00E948D00CE0101960E94290691
:10101000CE0107960E942906CE010D960E94290650
:1010200029CF0E94F004F4CF0E94C604F1CF898931
:101030009A89892B69F3ED85FE85309749F3808184
:1010400061E0843419F060E0853511F78CE00E948E
:10105000FC01DECFCE010D960E941E0670930701A3
:1010600060930601D5CFCE010D960E941E0616167E
:1010700017061806190664F66093020170930301BF
:101080008093040190930501C3CFCE010D960E9479
:101090001E0616161706180619060CF0B9CFDECF75
:1010A000009313020E94DA0560E080E00E94E505EB
:1010B0006BE771E08EE893E00E949E0561E080E0BE
:1010C0000E94E505209100013091010180911202FA
:1010D000863060F580911202813071F41092DC024A
:1010E0001092DB02B0920901A092080180911202D5
:1010F0008F5F80931202EACF80911202833049F40D
:101100001092DC021092DB02D0920901C092080119
:10111000EDCF809112028530C9F62091DB0230912B
:10112000DC02F0920901E0920801E0CF3093010166
:101130002093000110921302109212020E94DA050D
:1011400060E080E00E94E5056AE871E08EE893E0E7
:101150000E949E0561E080E00E94E50565E971E07E
:101160008EE893E00E949E0560910001709101015C
:101170008EE893E00E94A00568E873E180E090E0CB
:101180000E9480020E94DA0543CFCE010D960E9494
:101190001E0670930101609300016DE971E085EE18
:1011A00092E00E949E054091000150910101052EA0
:1011B000000C660B770B77FF0BC085EE92E00E9468
:1011C000750568E771E085EE92E00E941A0520CF70
:1011D0002AE085EE92E00E942905F3CFCE01079622
:1011E0000E942906CE010D960E94290662960FB62E
:1011F000F894DEBF0FBECDBFDF91CF911F910F914D
:10120000FF90EF90DF90CF90BF90AF90089585ED65
:101210008093BC008091A0029091A102A091A202B3
:10122000B091A3020796A11DB11D23E0B695A79525
:10123000979587952A95D1F72091BC0024FD03C08E
:1012400010929E0208954091A0025091A1026091D7
:10125000A2027091A302452B462B472B69F30097FE
:10126000A105B10541F02AE22A95F1F700C00197E6
:10127000A109B109E1CF80919F020C9435031F921F
:101280000F920FB60F9211242F933F934F935F93BA
:101290006F937F938F939F93AF93BF93EF93FF933E
:1012A00085EE92E00E941B01FF91EF91BF91AF91FB
:1012B0009F918F917F916F915F914F913F912F916E
:1012C0000F900FBE0F901F9018951F920F920FB6A0
:1012D0000F9211242F938F939F93EF93FF93E0919D
:1012E000F502F091F6028081E091FB02F091FC02A0
:1012F00082FD1BC090818091FE028F5F8F732091D1
:10130000FF02821741F0E091FE02F0E0EB51FD4F49
:10131000958F8093FE02FF91EF919F918F912F9176
:101320000F900FBE0F901F9018958081F4CF1F92E1
:101330000F920FB60F9211242F933F938F939F9389
:10134000AF93BF938091C7029091C802A091C90248
:10135000B091CA023091C60223E0230F2D3758F511
:101360000196A11DB11D2093C6028093C7029093E0
:10137000C802A093C902B093CA028091CB02909197
:10138000CC02A091CD02B091CE020196A11DB11D5B
:101390008093CB029093CC02A093CD02B093CE0267
:1013A000BF91AF919F918F913F912F910F900FBE61
:1013B0000F901F90189526E8230F0296A11DB11DCE
:1013C000D2CF1F920F920FB60F9211242F933F93FB
:1013D0004F935F936F937F938F939F93AF93BF933D
:1013E000EF93FF938091B900887F803609F44AC05B
:1013F000F0F5883209F4A7C018F5803109F49BC0D4
:10140000B8F4882309F4F9C0883009F494C0FF9136
:10141000EF91BF91AF919F918F917F916F915F916C
:101420004F913F912F910F900FBE0F901F901895E5
:10143000883109F488C0803251F780939C0214C02F
:10144000803409F49DC040F48033B9F38833F9F651
:1014500080939C0285ECB0C0803509F485C0883546
:1014600009F496C0883499F60E940709D0CF8839CC
:1014700009F48CC038F5883729F050F4883611F01B
:10148000803729F683E080939E021092770257C03E
:10149000883809F47BC0803919F0803809F0B7CF5B
:1014A00080917702803208F071C0E091770281E08C
:1014B0008E0F809377028091BB00F0E0E95AFD4FD8
:1014C00080833DC0803B39F0E0F4803A09F479C074
:1014D000883A09F09CCF84E080939E0210925602D5
:1014E00010925502E091D102F091D20209958091BB
:1014F000550281110FC081E0809355021092350290
:1015000009C0803C09F4A6CF883C09F4A3CF883BEE
:1015100009F07DCFE091560281E08E0F8093560254
:10152000F0E0EB5CFD4F80818093BB009091560210
:101530008091550229C0809179028093BB0085EC8F
:101540008093BC0064CF90919B0280919A0298177F
:1015500058F5E0919B0281E08E0F80939B02F0E0B2
:10156000E658FD4F8081E9CFE0919B0281E08E0F2C
:1015700080939B028091BB00F0E0E658FD4F808392
:1015800090919B0280919A029817C8F285E8D8CF73
:10159000E0919B0281E08E0F80939B028091BB00C3
:1015A000F0E0E658FD4F808380919D0281115CCF71
:1015B00081E08093780284EA8093BC0010929E02BE
:1015C00026CF85EC8093BC0010929E02809177021A
:1015D000803230F4E0917702F0E0E95AFD4F10825A
:1015E0006091770270E0E091CF02F091D00287E540
:1015F00092E00995109277020ACF10929C0234CFA4
:101600001F920F920FB60F9211242F933F934F9377
:101610005F936F937F938F939F93AF93BF93EF935A
:10162000FF938091020190910301A0910401B09178
:10163000050190938500809384008091DB02909156
:10164000DC02892B41F4809113028823E9F1809117
:1016500012028823C9F161E08BE00E94FC0188B18D
:10166000E0911002F0E0E85EFE4F80739081892BDC
:1016700088B980910801909109018934910551F44C
:1016800080911002811104C087E0809310020FC086
:101690008150FBCF80910801909109018C34910514
:1016A00031F480911002873001F510921002809180
:1016B00013028823E1F08091DB029091DC02019615
:1016C0009093DC028093DB02FF91EF91BF91AF9189
:1016D0009F918F917F916F915F914F913F912F914A
:1016E0000F900FBE0F901F9018958F5FCECF8091F7
:1016F000DB029091DC020197E3CF1F920F920FB6AD
:101700000F9211240F931F932F933F934F935F9347
:101710006F937F938F939F93AF93BF93EF93FF93B9
:101720000E94B20200910C0210910D0220910E0253
:1017300030910F02601B710B820B930B643F714061
:101740008105910598F080911302882311F1809111
:1017500012028F5F809312020E94B20260930C0209
:1017600070930D0280930E0290930F02FF91EF9100
:10177000BF91AF919F918F917F916F915F914F91A9
:101780003F912F911F910F910F900FBE0F901F90BF
:10179000189580910801909109018334910589F091
:1017A00080910801909109018C34910551F080914C
:1017B0000801909109018F34910531F40E94C6040B
:1017C000CBCF0E94F004C8CF80910801909109010D
:1017D0008934910509F6F2CFE5EEF2E01382128228
:1017E00088EE93E0A0E0B0E084839583A683B7837E
:1017F0002CE431E03183208325EC30E035872487E9
:1018000024EC30E03787268720EC30E0318B208BCA
:1018100021EC30E0338B228B22EC30E0358B248BB3
:1018200026EC30E0378B268B118E128E138E148EA1
:10183000E2E8F3E01382128284839583A683B78360
:101840008EE591E091838083EEE8F3E013821282CB
:1018500080E791E09183808387E2848380E18187C0
:1018600082E0828713860895CF93DF9300D000D063
:1018700000D01F92CDB7DEB7789484B5826084BD66
:1018800084B5816084BD85B5826085BD85B5816084
:1018900085BD80916E00816080936E001092810002
:1018A00080918100826080938100809181008160BD
:1018B000809381008091800081608093800080917E
:1018C000B10084608093B1008091B000816080930A
:1018D000B00080917A00846080937A0080917A00D1
:1018E000826080937A0080917A00816080937A0090
:1018F00080917A00806880937A001092C100E09114
:10190000F502F091F60292E09083E091F102F091FD
:10191000F2021082E091F302F091F4028FEC8083E6
:101920001092FD02E091F902F091FA0286E08083C4
:10193000E091F702F091F802808180618083E0916C
:10194000F702F091F802808188608083E091F702CD
:10195000F091F802808180688083E091F702F09135
:10196000F80280818F7D8083F89480916900826085
:1019700080936900E89A87B18F6087B910928000E0
:10198000109281004DEE55E860E070E04093020156
:10199000509303016093040170930501409102018B
:1019A00050910301609104017091050150938500ED
:1019B000409384009093810080916F0081608093B8
:1019C0006F00789470E4672E71E0772EF301119127
:1019D0003F0160E0812F0E942A0261E0812F0E9476
:1019E000FC01F4E46F16F1E07F0681F761E08AE024
:1019F0000E942A0261E089E00E942A0261E088E0F8
:101A00000E942A0261E087E00E942A0261E08BE0E6
:101A10000E942A0261E08CE00E942A0218E01093E2
:101A2000990360E08EE893E00E94DC031092D602F6
:101A30001092D5021092D4021092D3020E94170382
:101A400088EC90E09093D2028093D10289EC90E0F0
:101A50009093D0028093CF021092930380919803C9
:101A6000823008F0A7C18093960362E370E080E0C3
:101A700090E00E948002609199038EE893E00E94BA
:101A8000DC0368EE73E080E090E00E94800260E397
:101A90008EE893E00E94AA050BE416E4C8010197C2
:101AA000F1F760E38EE893E00E94AA05C801019770
:101AB000F1F760E38EE893E00E94AA0583E592E0E7
:101AC0000197F1F760E28EE893E00E94AA05609129
:101AD0009303606240E08EE893E00E94C30584E0D7
:101AE0008093940340E06CE08EE893E00E94C3058D
:101AF0000E94DA0582E08093950340E066E08EE87C
:101B000093E00E94C30540E062E08EE893E00E940B
:101B1000C3050BE31FE1C8010197F1F76FE971E01D
:101B20008EE893E00E949E0561E080E00E94E5055A
:101B30006FEA71E08EE893E00E949E050E941E0706
:101B400064E670E080E090E00E9480020E94DA0586
:101B500040E062E08EE893E00E94C305C80101976F
:101B6000F1F760EC71E08EE893E00E949E0568EE6C
:101B700073E080E090E00E9480020E94DA0568EE47
:101B8000262E63E0362E412C512C0E94B202009189
:101B9000E1021091E2022091E3023091E402601B25
:101BA000710B820B930B633371058105910508F46A
:101BB00063C044E4E42E41E0F42E50E3C52E51E02E
:101BC000D52E10E0F70101917F0160E0802F0E9487
:101BD000FC01460130E4A32E31E0B32EF501219142
:101BE0005F012F83822F0E94D301892B39F48F81CB
:101BF0000E94D301892BD9F3F4011081F4E08F0EF8
:101C0000911C6A147B0451F761E0802F0E94FC0153
:101C10002FEFC21AD20A38E4E31631E0F30691F648
:101C2000112301F1CE0101960E94B4066BE4CE01AE
:101C300001960E945906612FCE0101960E94590615
:101C40006AE0CE0101960E945906BE016F5F7F4F88
:101C500085EE92E00E948D00CE0101960E94290639
:101C60000E941E070E94B2026093E1027093E2029A
:101C70008093E3029093E40280910801909109011E
:101C80008F34910509F099C00E94B2020091DD02E3
:101C90001091DE022091DF023091E002AB01BC0125
:101CA000401B510B620B730B809106019091070151
:101CB000092E000CAA0BBB0B84179507A607B707C4
:101CC00008F07BC00E94C6048091DB029091DC0288
:101CD000892B59F58091080190910901893491056A
:101CE00009F016C14FE450E05093090140930801F8
:101CF0000E94B2026093DD027093DE028093DF02E5
:101D00009093E0020E94DA0560E080E00E94E50521
:101D100065EE71E08EE893E00E949E0560E08BE046
:101D20000E94FC0188B1807388B90E94B2020091C0
:101D3000D7021091D8022091D9023091DA02601BAB
:101D4000710B820B930B623071058105910528F1AF
:101D50000E94B2026093D7027093D8028093D90296
:101D60009093DA02CE0101960E94B4066FE5CE018F
:101D700001960E9459066AE0CE0101960E9459061A
:101D8000BE016F5F7F4F85EE92E00E948D000E9442
:101D90001E07CE0101960E942906E0E0F0E0EF2B3D
:101DA00009F4F3CE0E940701882309F4EECE0E94C5
:101DB0000000EBCE1093930356CE809108019091D2
:101DC00009018F34910509F07FCF0E94B202009182
:101DD000DD021091DE022091DF023091E002AB01C2
:101DE000BC01401B510B620B730B8091060190915B
:101DF000070197FD019695958795092E000CAA0B72
:101E0000BB0B84179507A607B70708F05DCF0E94A4
:101E1000B2020091DD021091DE022091DF023091CA
:101E2000E002601B710B820B930B24E630E040E074
:101E300050E00E944D11CA01B9012AE030E040E0B3
:101E400050E00E944D11672B682B692B09F03CCFA5
:101E50000E94DA0560E080E00E94E5056EEC71E02A
:101E60008EE893E00E949E0561E080E00E94E50517
:101E70008091DD029091DE02A091DF02B091E0023C
:101E80000E94B2024091DD025091DE026091DF02B9
:101E90007091E0028091060190910701092E000CDB
:101EA000AA0BBB0B6C017D01C40ED51EE61EF71EEE
:101EB0000E94B202A7019601261B370B480B590B53
:101EC000CA01B901A20191010E944D11CA01B901D3
:101ED0000E94E50F20E030E040E05FE30E94AB109D
:101EE0000E941711603137E2730718F060E070E06C
:101EF000CB018EE893E00E94A00561E088E00E949B
:101F0000E5056DED71E08EE893E00E949E05DCCE64
:101F100080910801909109018C34910509F0FECE61
:101F200083E490E090930901809308010E94DA0510
:101F300060E080E00E94E50564EF71E08EE893E0E8
:101F40000E949E0561E080E00E94E50564E072E089
:101F5000E1CE1F93FC0199278827BC01E8941191D9
:101F60001032E9F3193010F01E30C8F31B3251F073
:101F70001D3249F4689406C00E94D00F610F711D94
:101F8000811D911D119110531A30B0F33EF49095BC
:101F90008095709561957F4F8F4F9F4F1F9108954A
:101FA000592F482F372F262F660F771F881F991F0D
:101FB000660F771F881F991F620F731F841F951F5D
:101FC000660F771F881F991F0895E89409C097FB33
:101FD0003EF490958095709561957F4F8F4F9F4F00
:101FE0009923A9F0F92F96E9BB279395F695879544
:101FF00077956795B795F111F8CFFAF4BB0F11F407
:1020000060FF1BC06F5F7F4F8F4F9F4F16C08823AD
:1020100011F096E911C0772321F09EE8872F762FE3
:1020200005C0662371F096E8862F70E060E02AF024
:102030009A95660F771F881FDAF7880F9695879510
:1020400097F9089597F99F6780E870E060E0089538
:102050009FEF80EC089500240A94161617061806C0
:102060000906089500240A9412161306140605069C
:102070000895092E0394000C11F4882352F0BB0F2D
:1020800040F4BF2B11F460FF04C06F5F7F4F8F4F90
:102090009F4F089557FD9058440F551F59F05F3FCB
:1020A00071F04795880F97FB991F61F09F3F79F07A
:1020B00087950895121613061406551FF2CF4695FC
:1020C000F1DF08C0161617061806991FF1CF86957E
:1020D0007105610508940895E894BB276627772762
:1020E000CB0197F908952F923F924F925F926F9292
:1020F0007F928F929F92AF92BF92CF92DF92EF9298
:10210000FF920F931F93CF93DF93CDB7DEB7CA1B18
:10211000DB0B0FB6F894DEBF0FBECDBF09942A8843
:10212000398848885F846E847D848C849B84AA84EB
:10213000B984C884DF80EE80FD800C811B81AA8178
:10214000B981CE0FD11D0FB6F894DEBF0FBECDBF43
:10215000ED0108955058BB27AA270E94C2100C9485
:1021600039100E942B1038F00E94321020F039F400
:102170009F3F19F426F40C9428100EF4E095E7FB29
:102180000C942210E92F0E944A1058F3BA176207E4
:1021900073078407950720F079F4A6F50C946C106A
:1021A0000EF4E0950B2EBA2FA02D0B01B901900172
:1021B0000C01CA01A0011124FF27591B99F0593FB6
:1021C00050F4503E68F11A16F040A22F232F342FFE
:1021D0004427585FF3CF469537952795A795F0404C
:1021E0005395C9F77EF41F16BA0B620B730B840B61
:1021F000BAF09150A1F0FF0FBB1F661F771F881F19
:10220000C2F70EC0BA0F621F731F841F48F4879570
:1022100077956795B795F7959E3F08F0B0CF939562
:10222000880F08F09927EE0F9795879508950E94DB
:102230001E116894B1110C946D1008950E945210F3
:1022400088F09F5798F0B92F9927B751B0F0E1F077
:10225000660F771F881F991F1AF0BA95C9F714C027
:10226000B13091F00E946C10B1E008950C946C10A4
:10227000672F782F8827B85F39F0B93FCCF3869560
:1022800077956795B395D9F73EF4909580957095BD
:1022900061957F4F8F4F9F4F0895A1E21A2EAA1B81
:1022A000BB1BFD010DC0AA1FBB1FEE1FFF1FA21706
:1022B000B307E407F50720F0A21BB30BE40BF50B03
:1022C000661F771F881F991F1A9469F7609570958C
:1022D000809590959B01AC01BD01CF010895EE0F53
:1022E000FF1F0590F491E02D09940F931F93CF9356
:1022F000DF938230910510F482E090E0E0919C033E
:10230000F0919D0330E020E0B0E0A0E0309799F438
:102310002115310509F44AC0281B390B2430310539
:10232000D8F58A819B816115710589F1FB01938341
:102330008283FE0111C040815181028113814817BF
:102340005907E0F04817590799F4109761F0129671
:102350000C93129713961C933296CF01DF91CF9175
:102360001F910F91089500939C0310939D03F4CF48
:102370002115310551F04217530738F0A901DB014F
:102380009A01BD01DF01F801C1CFEF01F9CF9093B0
:102390009D0380939C03CDCFFE01E20FF31F819339
:1023A00091932250310939832883D7CF20919A0302
:1023B00030919B03232B41F420910C0130910D01AE
:1023C00030939B0320939A0320910A0130910B01D3
:1023D0002115310541F42DB73EB740910E015091C2
:1023E0000F01241B350BE0919A03F0919B03E21738
:1023F000F307A0F42E1B3F0B2817390778F0AC0128
:102400004E5F5F4F2417350748F04E0F5F1F509304
:102410009B0340939A03819391939FCFF0E0E0E078
:102420009CCFCF93DF930097E9F0FC0132971382A2
:102430001282A0919C03B0919D03ED0130E020E059
:102440001097A1F420813181820F931F20919A036C
:1024500030919B032817390709F061C0F0939B0363
:10246000E0939A03DF91CF910895EA01CE17DF0739
:10247000E8F54A815B819E0141155105B1F7E901FB
:10248000FB83EA8349915991C40FD51FEC17FD07CF
:1024900061F4808191810296840F951FE9019983EF
:1024A0008883828193819B838A83F0E0E0E01296A7
:1024B0008D919C9113970097B9F52D913C911197AF
:1024C000CD010296820F931F20919A0330919B03B6
:1024D0002817390739F6309751F510929D0310925D
:1024E0009C03B0939B03A0939A03BCCFD383C28376
:1024F00040815181840F951FC817D90761F44E5F41
:102500005F4F88819981480F591F518340838A8189
:102510009B81938382832115310509F0B0CFF0931D
:102520009D03E0939C039ECFFD01DC01C0CF13828D
:102530001282D7CFB0E0A0E0E0EAF2E10C9475108F
:102540008C01009751F4CB010E9475118C01C801D8
:10255000CDB7DEB7E0E10C949110FC01E60FF71F58
:102560009C0122503109E217F30708F49DC0D901FC
:10257000CD91DC911197C617D70798F0C530D105DA
:1025800030F3CE0104978617970708F3C61BD70BC5
:102590002297C193D1936D937C93CF010E94111226
:1025A000D6CF5B01AC1ABD0A4C018C0E9D1EA091CA
:1025B0009C03B0919D03512C412CF12CE12C1097E0
:1025C00031F580919A0390919B038815990509F044
:1025D0005CC04616570608F058C080910A019091D9
:1025E0000B01009741F48DB79EB740910E015091B9
:1025F0000F01841B950BE817F90708F055C0F093FD
:102600009B03E0939A03F90171836083A0CF8D91BE
:102610009C91119712966C90129713967C90139739
:10262000A815B90559F56C0142E0C40ED11CCA14B5
:10263000DB0420F1AC014A195B09DA011296159707
:1026400080F06282738251834083D9016D937C93C1
:10265000E114F10471F0D7011396FC93EE931297F5
:1026600076CF22968C0F9D1FF90191838083F30111
:10267000EFCFF0939D03E0939C0369CF4816590672
:1026800008F42C017D01D3019ACFCB010E94751172
:102690007C01009749F0AE01B8010E945713C801B0
:1026A0000E941112870153CF10E000E050CFFB01D0
:1026B000DC0102C001900D9241505040D8F70895BE
:1026C000FB01DC0101900D920020E1F70895F894E0
:0226D000FFCF3A
:1026D200C8007AE1000060EA430000009E03800027
:1026E2000000400014005400010204080102040822
:1026F20003060C0903060C0901030206040C08096F
:102702003132334134353642373839432A30234463
:10271200030405060A090807000000003D019B00AA
:10272200CA008A01FB00D900ED0000000000AD03E1
:102732008003C304560379036603570300000000B5
:1027420018069B00C3048C000D0A0043616C696289
:10275200726174696E672E2E2E0043616C6962721B
:10276200617465640053746570733A2000560057B3
:10277200616974696E6720666F7220525069004CFD
:102782006F6164696E6720636F6E6669672E2E00E3
:10279200496E697420636F6D706C65746500446F77
:1027A2006F7220636C6F736520696E3A00736563A4
:1027B2006F6E647300416363657373206772616E49
:1027C20074656400456E7465722070617373776F0F
:0A27D20072643A005F5F5F5F000071
:00000001FF
