:100000000C9462000C94770B0C948A000C948A0078
:100010000C948A000C948A000C948A000C948A0038
:100020000C948A000C948A000C948A000C948A0028
:100030000C948A000C94FA0A0C948A000C948A009E
:100040000C9491090C948A000C945F090C94390962
:100050000C948A000C948A000C948A000C948A00F8
:100060000C94DB090C948A00000000002400270097
:100070002A0000000000250028002B0000000000DE
:1000800023002600290004040404040404040202DA
:100090000202020203030303030301020408102007
:1000A0004080010204081020010204081020000012
:1000B0000008000201000003040700000000000027
:1000C0000000E60B11241FBECFEFD8E0DEBFCDBF8E
:1000D00023E0ACE0B2E001C01D92A839B207E1F71D
:1000E00012E0A0E0B1E0EEE3F6E202C005900D926E
:1000F000AC30B107D9F710E0C2E6D0E004C02197D8
:10010000FE010E941C11C136D107C9F70E942E0CB6
:100110000C941D130C9400000895DB0114964D916E
:100120005C9115976D917C91DC01ED91FC910280C1
:10013000F381E02D0994AF92BF92CF92DF92EF92BC
:10014000FF920F931F93CF93DF936C017B018B0181
:10015000040F151FEB015E01AE18BF08C017D107D1
:1001600059F06991D601ED91FC910190F081E02D5B
:10017000C6010995892B79F7C501DF91CF911F91B0
:100180000F91FF90EF90DF90CF90BF90AF900895C8
:1001900008950895FC01538D448D252F30E0842F60
:1001A00090E0821B930B541710F0CF96089501979F
:1001B0000895FC01918D828D981761F0A28DAE0F8C
:1001C000BF2FB11D5D968C91928D9F5F9F73928F13
:1001D00090E008958FEF9FEF0895FC01918D828D3F
:1001E000981731F0828DE80FF11D858D90E008950C
:1001F0008FEF9FEF0895FC01918D228D892F90E064
:10020000805C9F4F821B91098F73992708958FED12
:1002100092E00E94FB0021E0892B09F420E0822F6C
:10022000089580E090E0892B29F00E940701811158
:100230000C9400000895FC01A48DA80FB92FB11DE6
:10024000A35ABF4F2C91848D90E001968F7399270C
:10025000848FA689B7892C93A089B1898C918370EA
:1002600080648C93938D848D981306C00288F389E3
:10027000E02D80818F7D80830895EF92FF920F9310
:100280001F93CF93DF93EC0181E0888F9B8D8C8D42
:1002900098131AC0E889F989808185FF15C09FB736
:1002A000F894EE89FF896083E889F98980818370F9
:1002B000806480839FBF81E090E0DF91CF911F91A8
:1002C0000F91FF90EF900895F62E0B8D10E00F5FC9
:1002D0001F4F0F731127E02E8C8D8E110CC00FB69F
:1002E00007FCFACFE889F989808185FFF5CFCE0137
:1002F0000E941B01F1CFEB8DEC0FFD2FF11DE35A96
:10030000FF4FF0829FB7F8940B8FEA89FB898081B9
:100310008062CFCFCF93DF93EC01888D8823B9F033
:10032000AA89BB89E889F9898C9185FD03C0808100
:1003300086FD0DC00FB607FCF7CF8C9185FFF2CF7D
:10034000808185FFEDCFCE010E941B01E9CFDF91B7
:10035000CF910895833081F028F4813099F0823074
:10036000A9F008958730A9F08830C9F08430B1F43D
:10037000809180008F7D03C0809180008F77809373
:100380008000089584B58F7784BD089584B58F7DEE
:10039000FBCF8091B0008F778093B000089580915B
:1003A000B0008F7DF9CFCF93DF93282F30E0F90194
:1003B000E255FF4F8491F901E656FF4FD491F901C0
:1003C000EA57FF4FC491CC23A1F081110E94AA01EA
:1003D000EC2FF0E0EE0FFF1FE458FF4FA591B49112
:1003E000EC91ED2381E090E009F480E0DF91CF9182
:1003F000089580E090E0FACF1F93CF93DF93282FEA
:1004000030E0F901E255FF4F8491F901E656FF4FC4
:10041000D491F901EA57FF4FC491CC23A9F0162FCC
:1004200081110E94AA01EC2FF0E0EE0FFF1FEE58A1
:10043000FF4FA591B4918FB7F894EC91111108C0BA
:10044000D095DE23DC938FBFDF91CF911F9108956C
:10045000DE2BF8CFCF93DF9390E0FC01E656FF4F01
:1004600024918A579F4FFC0184918823D1F090E01A
:10047000880F991FFC01E859FF4FA591B491FC0129
:10048000EE58FF4FC591D49161110EC09FB7F894FB
:100490008C91E22FE0958E238C932881E223E883D0
:1004A0009FBFDF91CF9108958FB7F894EC91E22B25
:1004B000EC938FBFF6CF3FB7F8948091CD02909127
:1004C000CE02A091CF02B091D00226B5A89B05C064
:1004D0002F3F19F00196A11DB11D3FBFBA2FA92FC3
:1004E000982F8827BC01CD01620F711D811D911DC0
:1004F00042E0660F771F881F991F4A95D1F708952C
:100500008F929F92AF92BF92CF92DF92EF92FF9223
:100510004B015C010E945B026B017C010E945B024B
:100520006C197D098E099F09683E7340810591050C
:10053000A8F321E0821A9108A108B10888EEC80E3C
:1005400083E0D81EE11CF11C81149104A104B104C4
:1005500029F7FF90EF90DF90CF90BF90AF909F90E2
:100560008F9008952FB7F8946091C9027091CA02D4
:100570008091CB029091CC022FBF08950F931F93CF
:100580000E94B2026093E7027093E8028093E9024E
:100590009093EA028FED92E00E94D90097FF1DC070
:1005A0000E94B2020091E7021091E8022091E90254
:1005B0003091EA02601B710B820B930B0091E302F6
:1005C0001091E4022091E5023091E6026017710774
:1005D00082079307F8F28FEF9FEF1F910F91089515
:1005E00020915702260F3327331F21323105ECF4B7
:1005F0002091A002FC0190E080E0243069F082E0CC
:100600000895A09157022191AC01495C5D4FA40F60
:10061000B52FB11D2C930196861798F38091570240
:10062000680F6093570280E0089581E0089510926A
:10063000A00281E080939F0210927A0261E082E141
:100640000E94FC0161E083E10E94FC01E9EBF0E023
:1006500080818E7F808380818D7F808388E48093FA
:10066000B80085E48093BC000895CF93DF9391E0B8
:10067000909336028823B9F0C091B800D091BA00A7
:100680008091BC008A7B8093BC0060E082E10E9484
:10069000FC0160E083E10E94FC010E941703D093FB
:1006A000BA00C093B800DF91CF9108950895E0910A
:1006B000D8028091D702E81730F4F0E0EA5EFD4FEF
:1006C000808190E008958FEF9FEF08959091D80278
:1006D0008091D7022FEF3FEF981748F4E92FF0E011
:1006E000EA5EFD4F208130E09F5F9093D802C90100
:1006F00008958091D7029091D802891B990B089593
:10070000CF92DF92EF92FF920F931F93CF93DF93DD
:100710007C01CB018A012091A602222389F0EB0102
:100720006B01C40ED51ECC15DD0569F06991D701AA
:10073000ED91FC910190F081E02DC7010995F3CF77
:10074000642F0E94F002C801DF91CF911F910F9199
:10075000FF90EF90DF90CF900895CF93DF931F929B
:10076000CDB7DEB769832091A6022223F9F020914C
:10077000D502203258F021E030E0FC01338322839F
:1007800090E080E00F90DF91CF9108958091D602A4
:10079000E82FF0E0E955FD4F998190838F5F8093BA
:1007A000D6028093D50281E090E0ECCF61E0CE01EB
:1007B00001960E94F002F7CFCF92DF92EF92FF9264
:1007C0000F931F93CF93DF93FC01C48121E020930B
:1007D000A602C093C7021092D6021092D50283855A
:1007E000682B8CE793E00E94AD03D091D502D13203
:1007F00008F092C00E945B026B017C018091A00214
:10080000811165C082E08093A00281E080939F0205
:100810008FEF80939E0210929D02D0939C02A7EAD4
:10082000B2E0ECE7F2E080E0D81385C010927B02E2
:1008300080917B02CC0FC82BC0937B0280917A02FF
:10084000813009F07CC010927A020E945B026B0139
:100850007C0180917B028093BB008091A2029091E9
:10086000A302A091A402B091A502892B8A2B8B2B05
:1008700099F00E945B020091A2021091A3022091C4
:10088000A4023091A5026C197D098E099F090617F3
:10089000170728073907E0F18091BC0083FDD9CF05
:1008A00085EC8093BC000E945B026B017C0180910F
:1008B000A002823009F445C080919E028F3F61F111
:1008C00080919E02803241F180919E0225C08091EC
:1008D000A2029091A302A091A402B091A502892B3B
:1008E0008A2B8B2B09F48ACF0E945B020091A20213
:1008F0001091A3022091A4023091A5026C197D09E8
:100900008E099F09061717072807390708F076CFC1
:100910008091A1020E9435031092D6021092D50256
:100920001092A602DF91CF911F910F91FF90EF904F
:10093000DF90CF9008959D9191938F5F75CF85EE55
:10094000B0CF8091A2029091A302A091A402B09195
:10095000A502892B8A2B8B2B09F4A9CF0E945B025D
:100960000091A2021091A3022091A4023091A5024D
:100970006C197D098E099F09061717072807390783
:1009800008F095CFC5CF90E080E0089580910801F0
:10099000909109018C349105D9F0809108019091D2
:1009A000090183349105A1F08CE490E09093090152
:1009B000809308012091D9023091DA0280910001E0
:1009C00090910101232B29F49093DA028093D902AC
:1009D00008952091D9023091DA02821B930BF4CF53
:1009E000809108019091090189349105D9F0809195
:1009F0000801909109018F349105A1F089E490E0FC
:100A000090930901809308012091D9023091DA0274
:100A10008091000190910101232B29F49093DA0237
:100A20008093D90208952091D9023091DA02821B75
:100A3000930BF4CFFB0101900020E9F73197AF0150
:100A4000461B570BDC01ED91FC910280F381E02DF8
:100A500009948F929F92AF92BF92EF92FF920F9361
:100A60001F93CF93DF93CDB7DEB7A1970FB6F8945E
:100A7000DEBF0FBECDBF7C01FA01CB0119A222302F
:100A800008F42AE08E010F5D1F4F822E912CB12CAD
:100A9000A12CBF01A50194010E94FA10F901CA011D
:100AA0006A300CF5605DD8016E938D01232B242BE9
:100AB000252B79F790E080E0109721F0BD01C70168
:100AC0000E941A05A1960FB6F894DEBF0FBECDBFE7
:100AD000DF91CF911F910F91FF90EF90BF90AF905A
:100AE0009F908F900895695CDECFCF92DF92EF9256
:100AF000FF920F931F93CF93DF93EC016A017B0169
:100B0000E881F9810190F081E02D6DE209958C0179
:100B100044275527BA014C195D096E097F092AE05F
:100B2000CE010E942905800F911FDF91CF911F9167
:100B30000F91FF90EF90DF90CF9008950C941A05DD
:100B4000AB01770F660B770B77FD0C9475052AE0E8
:100B50000C9429050F931F93CF938C01C62F0E94ED
:100B6000DC036C2F6460C8010E94DC036C2F6B7F78
:100B7000C8010E94DC0383EC90E00197F1F7CF916C
:100B80001F910F9108950F931F93CF93DF938C01C3
:100B9000D62FC42F607F642B0E94AA0580E1D89FC6
:100BA000B00111246C2BC801DF91CF911F910F91DF
:100BB0000C94AA0540E061E088E893E00E94C30538
:100BC0008BE39FE10197F1F70895CF93DF93CDB7C2
:100BD000DEB728970FB6F894DEBF0FBECDBF98E002
:100BE000E0E1F1E0DE01119601900D929A95E1F7B6
:100BF00090919003961708F46FEF262F30E0220FA4
:100C0000331F41E050E04C0F5D1F240F351FF901E9
:100C10006081680F606840E088E893E028960FB62E
:100C2000F894DEBF0FBECDBFDF91CF910C94C3050A
:100C300041E00E94C30581E090E00895FC018081BD
:100C40009181009711F00C94560F60E070E0CB0199
:100C500008950F931F93CF93DF93EC0188819981BF
:100C6000009759F02A813B812617370730F081E041
:100C7000DF91CF911F910F9108958B016F5F7F4F8F
:100C80000E944712009759F0998388831B830A8337
:100C90002C813D81232B59F7FC011082E8CF80E0A5
:100CA000E7CFEF92FF920F931F93CF93DF9300D084
:100CB000CDB7DEB78C0169831A82FC01E480F58030
:100CC000FFEFEF1AFF0AB7010E942906882381F07F
:100CD000F8012081318184819581BE016F5F7F4F52
:100CE000820F931F0E941613F801F582E48281E0BF
:100CF0000F900F90DF91CF911F910F91FF90EF9088
:100D00000895CF93DF93EC0188819981009711F0CA
:100D10000E94BE11198218821D821C821B821A82B7
:100D2000DF91CF910895CF93DF93EC0170E060E005
:100D30000E942906811105C0CE01DF91CF910C944C
:100D400081061D821C8260EA71E088819981DF91B1
:100D5000CF910C9416139F92AF92BF92CF92DF92D5
:100D6000EF92FF920F931F93CF93DF93EC016B01F0
:100D70005A0179012417350720F48B2D5901E42EEF
:100D8000F82E198218821B821A821D821C82CE01C3
:100D90000E949306D60114960D911C91A016B106DF
:100DA00058F5E016F10608F48701D601ED91FC91A3
:100DB0001197E00FF11F90801082ED90FC90EA0CEB
:100DC000FB1CE114F10471F0F70101900020E9F738
:100DD00031975F01AE18BF08B501CE010E94290608
:100DE000811117C0CE010E948106F6018081918198
:100DF000080F191FD8019C92CE01DF91CF911F914E
:100E00000F91FF90EF90DF90CF90BF90AF909F90A9
:100E10000895BD82AC82B701888199810E94161322
:100E2000E4CFFC0180819181009711F00C94BE11F8
:100E3000089585ED8093BC008091A2029091A30259
:100E4000A091A402B091A5020796A11DB11D23E0B7
:100E5000B695A795979587952A95D1F72091BC00CF
:100E600024FD03C01092A00208954091A202509167
:100E7000A3026091A4027091A502452B462B472B3B
:100E800069F30097A105B10541F02AE22A95F1F72F
:100E900000C00197A109B109E1CF8091A1020C9492
:100EA0003503AF92BF92CF92DF92EF92FF920F93F2
:100EB0001F93CF93DF93CDB7DEB762970FB6F89449
:100EC000DEBF0FBECDBF01E08FE4E82EF12C99E428
:100ED000C92ED12C2CE4A22EB12C1E861D86188A78
:100EE0001F861A8A198ACE010D960E9493061886CB
:100EF0001F821A8619861C861B86CE0107960E94C1
:100F000093060E94BE0297FD09C08A30910531F018
:100F1000682FCE0107960E945106F3CF2B853C85A2
:100F20002115310521F0EF81F885309721F41092D9
:100F30001302E3E1F2E0108141E050E0BE01695F9D
:100F40007F4FCE0101960E94AB068D859E8500974E
:100F500009F44AC069817A816115710509F442C0BA
:100F60004F8558892D813E814217530708F43AC0B6
:100F70000E9416138D819E819A8B898B1E821D8201
:100F8000CE0101960E941107112309F474C0EFEB02
:100F9000E10FEF3108F06FC00E2E000CFF0BED5289
:100FA000F84F0C941C115C083B0882080508650882
:100FB0004A0844083B083B083B083B0847083B08F5
:100FC0003B083B083B083B083B08FF0877083B0809
:100FD000F7083B083B083B083B083B083B083B083D
:100FE0003B0820090E94BE1189819A819E878D87C6
:100FF0008B819C81988B8F878D819E819A8B898B29
:101000001A8219821C821B82B9CF0E94DA0560E025
:1010100080E00E94E50520E130E050E040E0BE01C4
:10102000635F7F4FCE0101960E94AB06BE016F5FEA
:101030007F4F88E893E00E948D00CE0101960E94C8
:10104000110761E080E00E94E50529893A8940E1C5
:1010500050E0BE01635F7F4FCE0101960E94AB0658
:10106000BE016F5F7F4F88E893E00E948D00CE0144
:1010700001960E941107CE0107960E941107CE012A
:101080000D960E94110729CF0E94F004F4CF0E9410
:10109000C604F1CF89899A89892B49F068E771E004
:1010A0008D859E850E940D1361E0892B09F060E01B
:1010B0008CE00E94FC01DFCFCE010D960E941E063F
:1010C0007093070160930601D6CFCE010D960E9462
:1010D0001E0616161706180619066CF6609302010E
:1010E000709303018093040190930501C4CFCE0156
:1010F0000D960E941E0616161706180619060CF005
:10110000BACFDECF009315020E94DA0560E080E0DE
:101110000E94E5056AE771E088E893E00E949E0579
:1011200061E080E00E94E50520910001309101011D
:1011300080911402863060F580911402813071F440
:101140001092DA021092D902B0920901A09208011D
:10115000809114028F5F80931402EACF8091140271
:10116000833049F41092DA021092D902D092090128
:10117000C0920801EDCF809114028530C9F620910C
:10118000D9023091DA02F0920901E0920801E0CF31
:101190003093010120930001109215021092140265
:1011A0000E94DA0560E080E00E94E50569E871E0F0
:1011B00088E893E00E949E0561E080E00E94E505DA
:1011C00064E971E088E893E00E949E056091000167
:1011D0007091010188E893E00E94A00568E873E13E
:1011E00080E090E00E9480020E94DA0544CFCE01A8
:1011F0000D960E941E0670930101609300016CE938
:1012000071E08FED92E00E949E05409100015091A7
:101210000101052E000C660B770B77FF0BC08FEDDD
:1012200092E00E9475056EE971E08FED92E00E94F8
:101230001A0521CF2AE08FED92E00E942905F3CF15
:10124000CE0107960E941107CE010D960E9411074C
:1012500062960FB6F894DEBF0FBECDBFDF91CF917F
:101260001F910F91FF90EF90DF90CF90BF90AF90C4
:1012700008951F920F920FB60F9211242F933F9350
:101280004F935F936F937F938F939F93AF93BF938E
:10129000EF93FF938FED92E00E941B01FF91EF917E
:1012A000BF91AF919F918F917F916F915F914F917E
:1012B0003F912F910F900FBE0F901F9018951F9286
:1012C0000F920FB60F9211242F938F939F93EF934A
:1012D000FF93E091EF02F091F0028081E091F5023E
:1012E000F091F60282FD1BC090818091F8028F5F21
:1012F0008F732091F902821741F0E091F802F0E03B
:10130000E152FD4F958F8093F802FF91EF919F91ED
:101310008F912F910F900FBE0F901F901895808185
:10132000F4CF1F920F920FB60F9211242F933F9379
:101330008F939F93AF93BF938091C9029091CA02FC
:10134000A091CB02B091CC023091C80223E0230FD0
:101350002D3758F50196A11DB11D2093C802809329
:10136000C9029093CA02A093CB02B093CC028091A1
:10137000CD029091CE02A091CF02B091D002019601
:10138000A11DB11D8093CD029093CE02A093CF02F8
:10139000B093D002BF91AF919F918F913F912F91C8
:1013A0000F900FBE0F901F90189526E8230F0296FE
:1013B000A11DB11DD2CF1F920F920FB60F92112413
:1013C0002F933F934F935F936F937F938F939F934D
:1013D000AF93BF93EF93FF938091B900887F8036DE
:1013E00009F44AC0F0F5883209F4A7C018F5803135
:1013F00009F49BC0B8F4882309F4F9C0883009F4D3
:1014000094C0FF91EF91BF91AF919F918F917F9188
:101410006F915F914F913F912F910F900FBE0F9061
:101420001F901895883109F488C0803251F7809355
:101430009E0214C0803409F49DC040F48033B9F397
:101440008833F9F680939E0285ECB0C0803509F4AC
:1014500085C0883509F496C0883499F60E9419072A
:10146000D0CF883909F48CC038F5883729F050F48A
:10147000883611F0803729F683E08093A00210921D
:10148000790257C0883809F47BC0803919F0803858
:1014900009F0B7CF80917902803208F071C0E091F5
:1014A000790281E08E0F809379028091BB00F0E099
:1014B000E75AFD4F80833DC0803B39F0E0F4803A2D
:1014C00009F479C0883A09F09CCF84E08093A002A7
:1014D0001092580210925702E091D302F091D40278
:1014E00009958091570281110FC081E080935702C6
:1014F0001092370209C0803C09F4A6CF883C09F459
:10150000A3CF883B09F07DCFE091580281E08E0F98
:1015100080935802F0E0E95CFD4F80818093BB002E
:10152000909158028091570229C080917B0280934C
:10153000BB0085EC8093BC0064CF90919D028091AC
:101540009C02981758F5E0919D0281E08E0F8093E0
:101550009D02F0E0E458FD4F8081E9CFE0919D02CB
:1015600081E08E0F80939D028091BB00F0E0E458F3
:10157000FD4F808390919D0280919C029817C8F244
:1015800085E8D8CFE0919D0281E08E0F80939D0287
:101590008091BB00F0E0E458FD4F808380919F0272
:1015A00081115CCF81E080937A0284EA8093BC0051
:1015B0001092A00226CF85EC8093BC001092A0026E
:1015C00080917902803230F4E0917902F0E0E75ABC
:1015D000FD4F10826091790270E0E091D102F091AC
:1015E000D20289E592E00995109279020ACF109211
:1015F0009E0234CF1F920F920FB60F9211242F9399
:101600003F934F935F936F937F938F939F93AF938A
:10161000BF93EF93FF938091020190910301A091FA
:101620000401B0910501909385008093840080911E
:10163000D9029091DA02892B41F480911502882316
:10164000E9F1809114028823C9F161E08BE00E94E6
:10165000FC0188B1E0911202F0E0E85EFE4F807379
:101660009081892B88B98091080190910901893472
:10167000910551F480911202811104C087E080939A
:1016800012020FC08150FBCF809108019091090197
:101690008C34910531F480911202873001F510925B
:1016A0001202809115028823E1F08091D902909175
:1016B000DA0201969093DA028093D902FF91EF91BA
:1016C000BF91AF919F918F917F916F915F914F915A
:1016D0003F912F910F900FBE0F901F9018958F5F25
:1016E000CECF8091D9029091DA020197E3CF1F9279
:1016F0000F920FB60F9211240F931F932F933F93C6
:101700004F935F936F937F938F939F93AF93BF9309
:10171000EF93FF930E94B20200910E0210910F020C
:101720002091100230911102601B710B820B930B00
:10173000643F71408105910598F0809115028823DE
:1017400011F1809114028F5F809314020E94B20203
:1017500060930E0270930F02809310029093110217
:10176000FF91EF91BF91AF919F918F917F916F9179
:101770005F914F913F912F911F910F910F900FBE4D
:101780000F901F9018958091080190910901833462
:10179000910589F080910801909109018C3491059F
:1017A00051F080910801909109018F34910531F435
:1017B0000E94C604CBCF0E94F004C8CF80910801DC
:1017C000909109018934910509F6F2CFEFEDF2E02D
:1017D0001382128288EE93E0A0E0B0E084839583C8
:1017E000A683B7832CE431E03183208325EC30E0FD
:1017F0003587248724EC30E03787268720EC30E0DB
:10180000318B208B21EC30E0338B228B22EC30E0CB
:10181000358B248B26EC30E0378B268B118E128E85
:10182000138E148EECE7F3E0138212828483958387
:10183000A683B7838EE591E091838083E8E8F3E0A7
:101840001382128280E791E09183808387E2848310
:1018500080E1818782E0828713860895CF93DF93AA
:10186000CDB7DEB729970FB6F894DEBF0FBECDBF58
:10187000789484B5826084BD84B5816084BD85B56B
:10188000826085BD85B5816085BD80916E00816077
:1018900080936E001092810080918100826080931D
:1018A000810080918100816080938100809180001F
:1018B0008160809380008091B10084608093B1004A
:1018C0008091B00081608093B00080917A00846044
:1018D00080937A0080917A00826080937A00809170
:1018E0007A00816080937A0080917A00806880938A
:1018F0007A001092C100E091EF02F091F00292E0C4
:101900009083E091EB02F091EC021082E091ED0205
:10191000F091EE028FEC80831092F702E091F302D7
:10192000F091F40286E08083E091F102F091F202FE
:10193000808180618083E091F102F091F2028081E8
:1019400088608083E091F102F091F20280818068EA
:101950008083E091F102F091F20280818F7D80839B
:10196000F89480916900826080936900E89A87B159
:101970008F6087B910928000109281004DEE55E87B
:1019800060E070E040930201509303016093040112
:10199000709305014091020150910301609104018F
:1019A00070910501509385004093840090938100CD
:1019B00080916F00816080936F00789400E411E063
:1019C000F801F1908F0160E08F2D0E942A0261E002
:1019D0008F2D0E94FC01F1E004341F0789F761E0BC
:1019E0008AE00E942A0261E089E00E942A0261E006
:1019F00088E00E942A0261E087E00E942A0261E0FA
:101A00008BE00E942A0261E08CE00E942A0218E02A
:101A10001093930360E088E893E00E94DC03109247
:101A2000D8021092D7021092D6021092D5020E94CC
:101A3000170388EC90E09093D4028093D30289EC52
:101A400090E09093D2028093D10210928D03809106
:101A50009203823008F05DC18093900362E370E0EE
:101A600080E090E00E9480026091930388E893E018
:101A70000E94DC0368EE73E080E090E00E94800248
:101A800060E388E893E00E94AA050BE416E4C8012D
:101A90000197F1F760E388E893E00E94AA05C80186
:101AA0000197F1F760E388E893E00E94AA0583E5D7
:101AB00092E00197F1F760E288E893E00E94AA05BE
:101AC00060918D03606240E088E893E00E94C30566
:101AD00084E080938E0340E06CE088E893E00E940D
:101AE000C3050E94DA0582E080938F0340E066E040
:101AF00088E893E00E94C30540E062E088E893E054
:101B00000E94C3050BE31FE1C8010197F1F761EAE9
:101B100071E088E893E00E949E0561E080E00E9409
:101B2000E50561EB71E088E893E00E949E050E9464
:101B3000510764E670E080E090E00E9480020E941D
:101B4000DA0540E062E088E893E00E94C305C8013E
:101B50000197F1F762EC71E088E893E00E949E053E
:101B600068EE73E080E090E00E9480020E94DA0557
:101B70004AE0842E912CA12CB12C58EE452E53E036
:101B8000552E612C712C34E4C32E31E0D32E00E3AA
:101B900011E0F12CF601E1906F0160E08E2D0E94C2
:101BA000FC01180120E431E038872F83EF81F885AC
:101BB0002191F887EF832987822F0E94D301892BF7
:101BC00039F489850E94D301892BD9F3F101F08082
:101BD000F4E02F0E311C2F8138852454314031F729
:101BE00061E08E2D0E94FC010F5F1F4F58E4C51667
:101BF00051E0D50679F6FF2031F11A8219821C8254
:101C00001B821E821D82CE0101960E9493066BE408
:101C1000CE0101960E9451066F2DCE0101960E94C1
:101C200051066AE0CE0101960E945106BE016F5F27
:101C30007F4F8FED92E00E948D00CE0101960E94B1
:101C400011070E94510780910801909109018F347A
:101C5000910509F061C00E94B2020091DB0210916F
:101C6000DC022091DD023091DE02AB01BC01401BA1
:101C7000510B620B730B8091060190910701092EA5
:101C8000000CAA0BBB0B84179507A607B70708F033
:101C900043C00E94C6048091D9029091DA02892B38
:101CA00059F580910801909109018934910509F055
:101CB000DCC04FE450E050930901409308010E94BA
:101CC000B2026093DB027093DC028093DD0290939A
:101CD000DE020E94DA0560E080E00E94E50567EE22
:101CE00071E088E893E00E949E0560E08BE00E942E
:101CF000FC0188B1807388B9E0E0F0E0EF2B09F4D3
:101D000042CF0E940701882309F43DCF0E940000C2
:101D10003ACF10938D03A0CE8091080190910901D4
:101D20008F34910509F0B7CF0E94B2020091DB0217
:101D30001091DC022091DD023091DE02AB01BC018A
:101D4000401B510B620B730B8091060190910701B0
:101D500097FD019695958795092E000CAA0BBB0B54
:101D600084179507A607B70708F095CF0E94B2021F
:101D70000091DB021091DC022091DD023091DE0245
:101D8000601B710B820B930B24E630E040E050E0C7
:101D90000E94FA10CA01B901A50194010E94FA102B
:101DA000672B682B692B09F076CF0E94DA0560E07B
:101DB00080E00E94E50560ED71E088E893E00E9414
:101DC0009E0561E080E00E94E5058091DB02909134
:101DD000DC02A091DD02B091DE020E94B2024091CD
:101DE000DB025091DC026091DD027091DE02809195
:101DF000060190910701092E000CAA0BBB0B6C0188
:101E00007D01C40ED51EE61EF71E0E94B202A70178
:101E10009601261B370B480B590BCA01B901A301C8
:101E200092010E94FA10CA01B9010E94920F20E0AB
:101E300030E040E05FE30E9458100E94C41060311F
:101E400037E2730718F060E070E0CB0188E893E0B8
:101E50000E94A00561E088E00E94E5056FED71E059
:101E600088E893E00E949E0516CF8091080190912A
:101E700009018C34910509F038CF83E490E0909308
:101E80000901809308010E94DA0560E080E00E9469
:101E9000E50566EF71E088E893E00E949E0561E049
:101EA00080E00E94E50566E072E01BCF1F93FC0115
:101EB00099278827BC01E89411911032E9F3193071
:101EC00010F01E30C8F31B3251F01D3249F46894F3
:101ED00006C00E947D0F610F711D811D911D119122
:101EE00010531A30B0F33EF490958095709561953B
:101EF0007F4F8F4F9F4F1F910895592F482F372F96
:101F0000262F660F771F881F991F660F771F881F60
:101F1000991F620F731F841F951F660F771F881FFD
:101F2000991F0895E89409C097FB3EF49095809519
:101F3000709561957F4F8F4F9F4F9923A9F0F92F8F
:101F400096E9BB279395F695879577956795B7950D
:101F5000F111F8CFFAF4BB0F11F460FF1BC06F5FF3
:101F60007F4F8F4F9F4F16C0882311F096E911C005
:101F7000772321F09EE8872F762F05C0662371F026
:101F800096E8862F70E060E02AF09A95660F771F3A
:101F9000881FDAF7880F9695879597F9089597F92E
:101FA0009F6780E870E060E008959FEF80EC0895FF
:101FB00000240A9416161706180609060895002428
:101FC0000A9412161306140605060895092E0394A2
:101FD000000C11F4882352F0BB0F40F4BF2B11F416
:101FE00060FF04C06F5F7F4F8F4F9F4F089557FD75
:101FF0009058440F551F59F05F3F71F04795880F77
:1020000097FB991F61F09F3F79F08795089512160D
:1020100013061406551FF2CF4695F1DF08C01616B9
:1020200017061806991FF1CF86957105610508946A
:102030000895E894BB2766277727CB0197F9089581
:102040002F923F924F925F926F927F928F929F92C8
:10205000AF92BF92CF92DF92EF92FF920F931F93B6
:10206000CF93DF93CDB7DEB7CA1BDB0B0FB6F89467
:10207000DEBF0FBECDBF09942A88398848885F84A7
:102080006E847D848C849B84AA84B984C884DF8018
:10209000EE80FD800C811B81AA81B981CE0FD11DFC
:1020A0000FB6F894DEBF0FBECDBFED0108955058B6
:1020B000BB27AA270E946F100C94E60F0E94D80F2E
:1020C00038F00E94DF0F20F039F49F3F19F426F416
:1020D0000C94D50F0EF4E095E7FB0C94CF0FE92F8D
:1020E0000E94F70F58F3BA17620773078407950722
:1020F00020F079F4A6F50C9419100EF4E0950B2E4F
:10210000BA2FA02D0B01B90190010C01CA01A00149
:102110001124FF27591B99F0593F50F4503E68F1A4
:102120001A16F040A22F232F342F4427585FF3CFE5
:10213000469537952795A795F0405395C9F77EF4B6
:102140001F16BA0B620B730B840BBAF09150A1F0FF
:10215000FF0FBB1F661F771F881FC2F70EC0BA0F85
:10216000621F731F841F48F4879577956795B7950D
:10217000F7959E3F08F0B0CF9395880F08F0992708
:10218000EE0F9795879508950E94CB106894B11132
:102190000C941A1008950E94FF0F88F09F5798F032
:1021A000B92F9927B751B0F0E1F0660F771F881F5C
:1021B000991F1AF0BA95C9F714C0B13091F00E9476
:1021C0001910B1E008950C941910672F782F882703
:1021D000B85F39F0B93FCCF3869577956795B3959D
:1021E000D9F73EF490958095709561957F4F8F4F0C
:1021F0009F4F0895A1E21A2EAA1BBB1BFD010DC023
:10220000AA1FBB1FEE1FFF1FA217B307E407F507A6
:1022100020F0A21BB30BE40BF50B661F771F881F82
:10222000991F1A9469F760957095809590959B0118
:10223000AC01BD01CF010895EE0FFF1F0590F49191
:10224000E02D09940F931F93CF93DF938230910574
:1022500010F482E090E0E0919603F091970330E073
:1022600020E0B0E0A0E0309799F42115310509F4A1
:102270004AC0281B390B24303105D8F58A819B814F
:102280006115710589F1FB0193838283FE0111C001
:10229000408151810281138148175907E0F04817A6
:1022A000590799F4109761F012960C9312971396B0
:1022B0001C933296CF01DF91CF911F910F9108951A
:1022C0000093960310939703F4CF2115310551F035
:1022D0004217530738F0A901DB019A01BD01DF0164
:1022E000F801C1CFEF01F9CF909397038093960344
:1022F000CDCFFE01E20FF31F81939193225031095C
:1023000039832883D7CF2091940330919503232BD1
:1023100041F420910C0130910D01309395032093ED
:10232000940320910A0130910B012115310541F4EC
:102330002DB73EB740910E0150910F01241B350B74
:10234000E0919403F0919503E217F307A0F42E1B9C
:102350003F0B2817390778F0AC014E5F5F4F241709
:10236000350748F04E0F5F1F509395034093940339
:10237000819391939FCFF0E0E0E09CCFCF93DF93E8
:102380000097E9F0FC01329713821282A091960324
:10239000B0919703ED0130E020E01097A1F4208187
:1023A0003181820F931F2091940330919503281758
:1023B000390709F061C0F0939503E0939403DF912E
:1023C000CF910895EA01CE17DF07E8F54A815B81D6
:1023D0009E0141155105B1F7E901FB83EA8349915B
:1023E0005991C40FD51FEC17FD0761F480819181CD
:1023F0000296840F951FE9019983888382819381D6
:102400009B838A83F0E0E0E012968D919C91139774
:102410000097B9F52D913C911197CD010296820F4D
:10242000931F20919403309195032817390739F6AB
:10243000309751F51092970310929603B09395033D
:10244000A0939403BCCFD383C28340815181840F76
:10245000951FC817D90761F44E5F5F4F8881998136
:10246000480F591F518340838A819B8193838283C4
:102470002115310509F0B0CFF0939703E09396034F
:102480009ECFFD01DC01C0CF13821282D7CFB0E016
:10249000A0E0EDE4F2E10C9422108C01009751F4DD
:1024A000CB010E9422118C01C801CDB7DEB7E0E15B
:1024B0000C943E10FC01E60FF71F9C0122503109DD
:1024C000E217F30708F49DC0D901CD91DC91119773
:1024D000C617D70798F0C530D10530F3CE01049761
:1024E0008617970708F3C61BD70B2297C193D19382
:1024F0006D937C93CF010E94BE11D6CF5B01AC1AC5
:10250000BD0A4C018C0E9D1EA0919603B0919703BD
:10251000512C412CF12CE12C109731F58091940332
:10252000909195038815990509F05CC046165706E9
:1025300008F058C080910A0190910B01009741F476
:102540008DB79EB740910E0150910F01841B950BE2
:10255000E817F90708F055C0F0939503E09394034A
:10256000F90171836083A0CF8D919C911197129690
:102570006C90129713967C901397A815B90559F58E
:102580006C0142E0C40ED11CCA14DB0420F1AC0182
:102590004A195B09DA011296159780F062827382FC
:1025A00051834083D9016D937C93E114F10471F060
:1025B000D7011396FC93EE93129776CF22968C0F49
:1025C0009D1FF90191838083F301EFCFF09397036F
:1025D000E093960369CF4816590608F42C017D0153
:1025E000D3019ACFCB010E9422117C01009749F0C0
:1025F000AE01B8010E940413C8010E94BE118701F8
:1026000053CF10E000E050CFFB01DC0102C001908D
:102610000D9241505040D8F70895FB01DC018D9197
:10262000019080190110D9F3990B0895FB01DC0189
:0E26300001900D920020E1F70895F894FFCF7D
:10263E00C8007AE1000010274300000098038000D4
:10264E0000004000140054000102040801020408B6
:10265E0003060C0903060C0901030206040C080903
:10266E003132334134353642373839432A302344F8
:10267E00030405060A090807000000003D019B003F
:10268E00CA008A01FB00D900ED0000000000AD0376
:10269E008003C3045603790366035703000000004A
:1026AE0018069B00C3048C00310043616C69627292
:1026BE006174696E672E2E2E0043616C69627261C1
:1026CE007465640053746570733A200056000D0AE9
:1026DE000057616974696E6720666F722052506987
:1026EE00004C6F6164696E6720636F6E6669672E5A
:1026FE002E00496E697420636F6D706C6574650091
:10270E00446F6F7220636C6F736520696E3A00734D
:10271E0065636F6E647300416363657373206772E4
:10272E00616E74656400456E7465722070617373BA
:0C273E00776F72643A005F5F5F5F00001D
:00000001FF
